{"contracts/EduVerseQuiz.sol":{"EduVerseQuiz":{"abi":[{"inputs":[{"components":[{"internalType":"string","name":"questionUri","type":"string"},{"internalType":"uint8[]","name":"results","type":"uint8[]"},{"internalType":"address","name":"tokenAddress","type":"address"},{"internalType":"uint256","name":"tokenAmount","type":"uint256"},{"internalType":"uint256","name":"startDate","type":"uint256"},{"internalType":"uint256","name":"endDate","type":"uint256"}],"internalType":"struct EduVerseQuizParams","name":"params","type":"tuple"}],"stateMutability":"nonpayable","type":"constructor"},{"inputs":[{"internalType":"address","name":"owner","type":"address"}],"name":"OwnableInvalidOwner","type":"error"},{"inputs":[{"internalType":"address","name":"account","type":"address"}],"name":"OwnableUnauthorizedAccount","type":"error"},{"anonymous":false,"inputs":[{"indexed":true,"internalType":"address","name":"user","type":"address"},{"indexed":false,"internalType":"uint8","name":"score","type":"uint8"}],"name":"Answered","type":"event"},{"anonymous":false,"inputs":[{"indexed":true,"internalType":"address","name":"previousOwner","type":"address"},{"indexed":true,"internalType":"address","name":"newOwner","type":"address"}],"name":"OwnershipTransferred","type":"event"},{"inputs":[{"internalType":"uint8[]","name":"_answers","type":"uint8[]"}],"name":"answer","outputs":[],"stateMutability":"nonpayable","type":"function"},{"inputs":[{"internalType":"address","name":"","type":"address"}],"name":"answeredUsers","outputs":[{"internalType":"uint8","name":"","type":"uint8"}],"stateMutability":"view","type":"function"},{"inputs":[],"name":"claim","outputs":[],"stateMutability":"nonpayable","type":"function"},{"inputs":[],"name":"endDate","outputs":[{"internalType":"uint256","name":"","type":"uint256"}],"stateMutability":"view","type":"function"},{"inputs":[],"name":"maxScore","outputs":[{"internalType":"uint8","name":"","type":"uint8"}],"stateMutability":"view","type":"function"},{"inputs":[],"name":"owner","outputs":[{"internalType":"address","name":"","type":"address"}],"stateMutability":"view","type":"function"},{"inputs":[],"name":"poolSize","outputs":[{"internalType":"uint256","name":"","type":"uint256"}],"stateMutability":"view","type":"function"},{"inputs":[],"name":"questionUri","outputs":[{"internalType":"string","name":"","type":"string"}],"stateMutability":"view","type":"function"},{"inputs":[],"name":"renounceOwnership","outputs":[],"stateMutability":"nonpayable","type":"function"},{"inputs":[],"name":"startDate","outputs":[{"internalType":"uint256","name":"","type":"uint256"}],"stateMutability":"view","type":"function"},{"inputs":[],"name":"tokenAddress","outputs":[{"internalType":"address","name":"","type":"address"}],"stateMutability":"view","type":"function"},{"inputs":[{"internalType":"address","name":"newOwner","type":"address"}],"name":"transferOwnership","outputs":[],"stateMutability":"nonpayable","type":"function"},{"inputs":[{"internalType":"string","name":"_newUri","type":"string"}],"name":"updateQuestionUri","outputs":[],"stateMutability":"nonpayable","type":"function"}],"evm":{"bytecode":{"linkReferences":{},"object":"6080604052600a600360006101000a81548160ff021916908360ff1602179055503480156200002d57600080fd5b5060405162001e8238038062001e82833981810160405281019062000053919062000751565b33600073ffffffffffffffffffffffffffffffffffffffff168173ffffffffffffffffffffffffffffffffffffffff1603620000c95760006040517f1e4fbdf7000000000000000000000000000000000000000000000000000000008152600401620000c09190620007b3565b60405180910390fd5b620000da816200017b60201b60201c565b50806000015160019081620000f0919062000a11565b508060200151600290805190602001906200010d9291906200023f565b508060400151600360016101000a81548173ffffffffffffffffffffffffffffffffffffffff021916908373ffffffffffffffffffffffffffffffffffffffff160217905550806060015160048190555080608001516005819055508060a001516006819055505062000af8565b60008060009054906101000a900473ffffffffffffffffffffffffffffffffffffffff169050816000806101000a81548173ffffffffffffffffffffffffffffffffffffffff021916908373ffffffffffffffffffffffffffffffffffffffff1602179055508173ffffffffffffffffffffffffffffffffffffffff168173ffffffffffffffffffffffffffffffffffffffff167f8be0079c531659141344cd1fd0a4f28419497f9722a3daafe3b4186f6b6457e060405160405180910390a35050565b82805482825590600052602060002090601f01602090048101928215620002da5791602002820160005b83821115620002a957835183826101000a81548160ff021916908360ff160217905550926020019260010160208160000104928301926001030262000269565b8015620002d85782816101000a81549060ff0219169055600101602081600001049283019260010302620002a9565b505b509050620002e99190620002ed565b5090565b5b8082111562000308576000816000905550600101620002ee565b5090565b6000604051905090565b600080fd5b600080fd5b600080fd5b6000601f19601f8301169050919050565b7f4e487b7100000000000000000000000000000000000000000000000000000000600052604160045260246000fd5b620003708262000325565b810181811067ffffffffffffffff8211171562000392576200039162000336565b5b80604052505050565b6000620003a76200030c565b9050620003b5828262000365565b919050565b600080fd5b600080fd5b600080fd5b600067ffffffffffffffff821115620003e757620003e662000336565b5b620003f28262000325565b9050602081019050919050565b60005b838110156200041f57808201518184015260208101905062000402565b60008484015250505050565b6000620004426200043c84620003c9565b6200039b565b905082815260208101848484011115620004615762000460620003c4565b5b6200046e848285620003ff565b509392505050565b600082601f8301126200048e576200048d620003bf565b5b8151620004a08482602086016200042b565b91505092915050565b600067ffffffffffffffff821115620004c757620004c662000336565b5b602082029050602081019050919050565b600080fd5b600060ff82169050919050565b620004f581620004dd565b81146200050157600080fd5b50565b6000815190506200051581620004ea565b92915050565b6000620005326200052c84620004a9565b6200039b565b90508083825260208201905060208402830185811115620005585762000557620004d8565b5b835b8181101562000585578062000570888262000504565b8452602084019350506020810190506200055a565b5050509392505050565b600082601f830112620005a757620005a6620003bf565b5b8151620005b98482602086016200051b565b91505092915050565b600073ffffffffffffffffffffffffffffffffffffffff82169050919050565b6000620005ef82620005c2565b9050919050565b6200060181620005e2565b81146200060d57600080fd5b50565b6000815190506200062181620005f6565b92915050565b6000819050919050565b6200063c8162000627565b81146200064857600080fd5b50565b6000815190506200065c8162000631565b92915050565b600060c082840312156200067b576200067a62000320565b5b6200068760c06200039b565b9050600082015167ffffffffffffffff811115620006aa57620006a9620003ba565b5b620006b88482850162000476565b600083015250602082015167ffffffffffffffff811115620006df57620006de620003ba565b5b620006ed848285016200058f565b6020830152506040620007038482850162000610565b604083015250606062000719848285016200064b565b60608301525060806200072f848285016200064b565b60808301525060a062000745848285016200064b565b60a08301525092915050565b6000602082840312156200076a576200076962000316565b5b600082015167ffffffffffffffff8111156200078b576200078a6200031b565b5b620007998482850162000662565b91505092915050565b620007ad81620005e2565b82525050565b6000602082019050620007ca6000830184620007a2565b92915050565b600081519050919050565b7f4e487b7100000000000000000000000000000000000000000000000000000000600052602260045260246000fd5b600060028204905060018216806200082357607f821691505b602082108103620008395762000838620007db565b5b50919050565b60008190508160005260206000209050919050565b60006020601f8301049050919050565b600082821b905092915050565b600060088302620008a37fffffffffffffffffffffffffffffffffffffffffffffffffffffffffffffffff8262000864565b620008af868362000864565b95508019841693508086168417925050509392505050565b6000819050919050565b6000620008f2620008ec620008e68462000627565b620008c7565b62000627565b9050919050565b6000819050919050565b6200090e83620008d1565b620009266200091d82620008f9565b84845462000871565b825550505050565b600090565b6200093d6200092e565b6200094a81848462000903565b505050565b5b8181101562000972576200096660008262000933565b60018101905062000950565b5050565b601f821115620009c1576200098b816200083f565b620009968462000854565b81016020851015620009a6578190505b620009be620009b58562000854565b8301826200094f565b50505b505050565b600082821c905092915050565b6000620009e660001984600802620009c6565b1980831691505092915050565b600062000a018383620009d3565b9150826002028217905092915050565b62000a1c82620007d0565b67ffffffffffffffff81111562000a385762000a3762000336565b5b62000a4482546200080a565b62000a5182828562000976565b600060209050601f83116001811462000a89576000841562000a74578287015190505b62000a808582620009f3565b86555062000af0565b601f19841662000a99866200083f565b60005b8281101562000ac35784890151825560018201915060208501945060208101905062000a9c565b8683101562000ae3578489015162000adf601f891682620009d3565b8355505b6001600288020188555050505b505050505050565b61137a8062000b086000396000f3fe608060405234801561001057600080fd5b50600436106100cf5760003560e01c806388ddb0a61161008c5780639d76ea58116100665780639d76ea58146101b6578063a4dda86c146101d4578063c24a0f8b14610204578063f2fde38b14610222576100cf565b806388ddb0a61461015e5780638da5cb5b1461017a5780639a1b4b3814610198576100cf565b80630b97bc86146100d457806333261481146100f25780634e71d92d1461010e5780634ec18db91461011857806362b8a76414610136578063715018a614610154575b600080fd5b6100dc61023e565b6040516100e9919061092c565b60405180910390f35b61010c60048036038101906101079190610aed565b610244565b005b610116610421565b005b6101206105f7565b60405161012d919061092c565b60405180910390f35b61013e6105fd565b60405161014b9190610bb5565b60405180910390f35b61015c61068b565b005b61017860048036038101906101739190610c8c565b61069f565b005b6101826106b2565b60405161018f9190610d16565b60405180910390f35b6101a06106db565b6040516101ad9190610d40565b60405180910390f35b6101be6106ee565b6040516101cb9190610d16565b60405180910390f35b6101ee60048036038101906101e99190610d87565b610714565b6040516101fb9190610d40565b60405180910390f35b61020c610734565b604051610219919061092c565b60405180910390f35b61023c60048036038101906102379190610d87565b61073a565b005b60055481565b60028054905081511461028c576040517f08c379a000000000000000000000000000000000000000000000000000000000815260040161028390610e00565b60405180910390fd5b6000805b82518160ff16101561031e5760028160ff16815481106102b3576102b2610e20565b5b90600052602060002090602091828204019190069054906101000a900460ff1660ff16838260ff16815181106102ec576102eb610e20565b5b602002602001015160ff160361030b57818061030790610e7e565b9250505b808061031690610e7e565b915050610290565b50600360009054906101000a900460ff1660ff168160ff161115610377576040517f08c379a000000000000000000000000000000000000000000000000000000000815260040161036e90610ef3565b60405180910390fd5b80600760003373ffffffffffffffffffffffffffffffffffffffff1673ffffffffffffffffffffffffffffffffffffffff16815260200190815260200160002060006101000a81548160ff021916908360ff1602179055503373ffffffffffffffffffffffffffffffffffffffff167ff8331bb89425bd281313a56dea0ab2d03a1cf7447385e0e047802182ac08f939826040516104159190610d40565b60405180910390a25050565b6000600760003373ffffffffffffffffffffffffffffffffffffffff1673ffffffffffffffffffffffffffffffffffffffff16815260200190815260200160002060009054906101000a900460ff1660ff16116104b3576040517f08c379a00000000000000000000000000000000000000000000000000000000081526004016104aa90610f5f565b60405180910390fd5b6000600360019054906101000a900473ffffffffffffffffffffffffffffffffffffffff1673ffffffffffffffffffffffffffffffffffffffff166370a08231306040518263ffffffff1660e01b81526004016105109190610d16565b602060405180830381865afa15801561052d573d6000803e3d6000fd5b505050506040513d601f19601f820116820180604052508101906105519190610fab565b9050600360019054906101000a900473ffffffffffffffffffffffffffffffffffffffff1673ffffffffffffffffffffffffffffffffffffffff1663a9059cbb33836040518363ffffffff1660e01b81526004016105b0929190610fd8565b6020604051808303816000875af11580156105cf573d6000803e3d6000fd5b505050506040513d601f19601f820116820180604052508101906105f39190611039565b5050565b60045481565b6001805461060a90611095565b80601f016020809104026020016040519081016040528092919081815260200182805461063690611095565b80156106835780601f1061065857610100808354040283529160200191610683565b820191906000526020600020905b81548152906001019060200180831161066657829003601f168201915b505050505081565b6106936107c0565b61069d6000610847565b565b80600190816106ae9190611272565b5050565b60008060009054906101000a900473ffffffffffffffffffffffffffffffffffffffff16905090565b600360009054906101000a900460ff1681565b600360019054906101000a900473ffffffffffffffffffffffffffffffffffffffff1681565b60076020528060005260406000206000915054906101000a900460ff1681565b60065481565b6107426107c0565b600073ffffffffffffffffffffffffffffffffffffffff168173ffffffffffffffffffffffffffffffffffffffff16036107b45760006040517f1e4fbdf70000000000000000000000000000000000000000000000000000000081526004016107ab9190610d16565b60405180910390fd5b6107bd81610847565b50565b6107c861090b565b73ffffffffffffffffffffffffffffffffffffffff166107e66106b2565b73ffffffffffffffffffffffffffffffffffffffff16146108455761080961090b565b6040517f118cdaa700000000000000000000000000000000000000000000000000000000815260040161083c9190610d16565b60405180910390fd5b565b60008060009054906101000a900473ffffffffffffffffffffffffffffffffffffffff169050816000806101000a81548173ffffffffffffffffffffffffffffffffffffffff021916908373ffffffffffffffffffffffffffffffffffffffff1602179055508173ffffffffffffffffffffffffffffffffffffffff168173ffffffffffffffffffffffffffffffffffffffff167f8be0079c531659141344cd1fd0a4f28419497f9722a3daafe3b4186f6b6457e060405160405180910390a35050565b600033905090565b6000819050919050565b61092681610913565b82525050565b6000602082019050610941600083018461091d565b92915050565b6000604051905090565b600080fd5b600080fd5b600080fd5b6000601f19601f8301169050919050565b7f4e487b7100000000000000000000000000000000000000000000000000000000600052604160045260246000fd5b6109a982610960565b810181811067ffffffffffffffff821117156109c8576109c7610971565b5b80604052505050565b60006109db610947565b90506109e782826109a0565b919050565b600067ffffffffffffffff821115610a0757610a06610971565b5b602082029050602081019050919050565b600080fd5b600060ff82169050919050565b610a3381610a1d565b8114610a3e57600080fd5b50565b600081359050610a5081610a2a565b92915050565b6000610a69610a64846109ec565b6109d1565b90508083825260208201905060208402830185811115610a8c57610a8b610a18565b5b835b81811015610ab55780610aa18882610a41565b845260208401935050602081019050610a8e565b5050509392505050565b600082601f830112610ad457610ad361095b565b5b8135610ae4848260208601610a56565b91505092915050565b600060208284031215610b0357610b02610951565b5b600082013567ffffffffffffffff811115610b2157610b20610956565b5b610b2d84828501610abf565b91505092915050565b600081519050919050565b600082825260208201905092915050565b60005b83811015610b70578082015181840152602081019050610b55565b60008484015250505050565b6000610b8782610b36565b610b918185610b41565b9350610ba1818560208601610b52565b610baa81610960565b840191505092915050565b60006020820190508181036000830152610bcf8184610b7c565b905092915050565b600080fd5b600067ffffffffffffffff821115610bf757610bf6610971565b5b610c0082610960565b9050602081019050919050565b82818337600083830152505050565b6000610c2f610c2a84610bdc565b6109d1565b905082815260208101848484011115610c4b57610c4a610bd7565b5b610c56848285610c0d565b509392505050565b600082601f830112610c7357610c7261095b565b5b8135610c83848260208601610c1c565b91505092915050565b600060208284031215610ca257610ca1610951565b5b600082013567ffffffffffffffff811115610cc057610cbf610956565b5b610ccc84828501610c5e565b91505092915050565b600073ffffffffffffffffffffffffffffffffffffffff82169050919050565b6000610d0082610cd5565b9050919050565b610d1081610cf5565b82525050565b6000602082019050610d2b6000830184610d07565b92915050565b610d3a81610a1d565b82525050565b6000602082019050610d556000830184610d31565b92915050565b610d6481610cf5565b8114610d6f57600080fd5b50565b600081359050610d8181610d5b565b92915050565b600060208284031215610d9d57610d9c610951565b5b6000610dab84828501610d72565b91505092915050565b7f496e76616c696420616e7377657273206c656e67746800000000000000000000600082015250565b6000610dea601683610b41565b9150610df582610db4565b602082019050919050565b60006020820190508181036000830152610e1981610ddd565b9050919050565b7f4e487b7100000000000000000000000000000000000000000000000000000000600052603260045260246000fd5b7f4e487b7100000000000000000000000000000000000000000000000000000000600052601160045260246000fd5b6000610e8982610a1d565b915060ff8203610e9c57610e9b610e4f565b5b600182019050919050565b7f496e76616c69642073636f726500000000000000000000000000000000000000600082015250565b6000610edd600d83610b41565b9150610ee882610ea7565b602082019050919050565b60006020820190508181036000830152610f0c81610ed0565b9050919050565b7f4e6f20616e737765720000000000000000000000000000000000000000000000600082015250565b6000610f49600983610b41565b9150610f5482610f13565b602082019050919050565b60006020820190508181036000830152610f7881610f3c565b9050919050565b610f8881610913565b8114610f9357600080fd5b50565b600081519050610fa581610f7f565b92915050565b600060208284031215610fc157610fc0610951565b5b6000610fcf84828501610f96565b91505092915050565b6000604082019050610fed6000830185610d07565b610ffa602083018461091d565b9392505050565b60008115159050919050565b61101681611001565b811461102157600080fd5b50565b6000815190506110338161100d565b92915050565b60006020828403121561104f5761104e610951565b5b600061105d84828501611024565b91505092915050565b7f4e487b7100000000000000000000000000000000000000000000000000000000600052602260045260246000fd5b600060028204905060018216806110ad57607f821691505b6020821081036110c0576110bf611066565b5b50919050565b60008190508160005260206000209050919050565b60006020601f8301049050919050565b600082821b905092915050565b6000600883026111287fffffffffffffffffffffffffffffffffffffffffffffffffffffffffffffffff826110eb565b61113286836110eb565b95508019841693508086168417925050509392505050565b6000819050919050565b600061116f61116a61116584610913565b61114a565b610913565b9050919050565b6000819050919050565b61118983611154565b61119d61119582611176565b8484546110f8565b825550505050565b600090565b6111b26111a5565b6111bd818484611180565b505050565b5b818110156111e1576111d66000826111aa565b6001810190506111c3565b5050565b601f821115611226576111f7816110c6565b611200846110db565b8101602085101561120f578190505b61122361121b856110db565b8301826111c2565b50505b505050565b600082821c905092915050565b60006112496000198460080261122b565b1980831691505092915050565b60006112628383611238565b9150826002028217905092915050565b61127b82610b36565b67ffffffffffffffff81111561129457611293610971565b5b61129e8254611095565b6112a98282856111e5565b600060209050601f8311600181146112dc57600084156112ca578287015190505b6112d48582611256565b86555061133c565b601f1984166112ea866110c6565b60005b82811015611312578489015182556001820191506020850194506020810190506112ed565b8683101561132f578489015161132b601f891682611238565b8355505b6001600288020188555050505b50505050505056fea2646970667358221220dbd5e9c244459108f6ae4141ab441136dc8d947269f446b326916ffbccec0f7764736f6c63430008180033","opcodes":"PUSH1 0x80 PUSH1 0x40 MSTORE PUSH1 0xA PUSH1 0x3 PUSH1 0x0 PUSH2 0x100 EXP DUP2 SLOAD DUP2 PUSH1 0xFF MUL NOT AND SWAP1 DUP4 PUSH1 0xFF AND MUL OR SWAP1 SSTORE POP CALLVALUE DUP1 ISZERO PUSH3 0x2D JUMPI PUSH1 0x0 DUP1 REVERT JUMPDEST POP PUSH1 0x40 MLOAD PUSH3 0x1E82 CODESIZE SUB DUP1 PUSH3 0x1E82 DUP4 CODECOPY DUP2 DUP2 ADD PUSH1 0x40 MSTORE DUP2 ADD SWAP1 PUSH3 0x53 SWAP2 SWAP1 PUSH3 0x751 JUMP JUMPDEST CALLER PUSH1 0x0 PUSH20 0xFFFFFFFFFFFFFFFFFFFFFFFFFFFFFFFFFFFFFFFF AND DUP2 PUSH20 0xFFFFFFFFFFFFFFFFFFFFFFFFFFFFFFFFFFFFFFFF AND SUB PUSH3 0xC9 JUMPI PUSH1 0x0 PUSH1 0x40 MLOAD PUSH32 0x1E4FBDF700000000000000000000000000000000000000000000000000000000 DUP2 MSTORE PUSH1 0x4 ADD PUSH3 0xC0 SWAP2 SWAP1 PUSH3 0x7B3 JUMP JUMPDEST PUSH1 0x40 MLOAD DUP1 SWAP2 SUB SWAP1 REVERT JUMPDEST PUSH3 0xDA DUP2 PUSH3 0x17B PUSH1 0x20 SHL PUSH1 0x20 SHR JUMP JUMPDEST POP DUP1 PUSH1 0x0 ADD MLOAD PUSH1 0x1 SWAP1 DUP2 PUSH3 0xF0 SWAP2 SWAP1 PUSH3 0xA11 JUMP JUMPDEST POP DUP1 PUSH1 0x20 ADD MLOAD PUSH1 0x2 SWAP1 DUP1 MLOAD SWAP1 PUSH1 0x20 ADD SWAP1 PUSH3 0x10D SWAP3 SWAP2 SWAP1 PUSH3 0x23F JUMP JUMPDEST POP DUP1 PUSH1 0x40 ADD MLOAD PUSH1 0x3 PUSH1 0x1 PUSH2 0x100 EXP DUP2 SLOAD DUP2 PUSH20 0xFFFFFFFFFFFFFFFFFFFFFFFFFFFFFFFFFFFFFFFF MUL NOT AND SWAP1 DUP4 PUSH20 0xFFFFFFFFFFFFFFFFFFFFFFFFFFFFFFFFFFFFFFFF AND MUL OR SWAP1 SSTORE POP DUP1 PUSH1 0x60 ADD MLOAD PUSH1 0x4 DUP2 SWAP1 SSTORE POP DUP1 PUSH1 0x80 ADD MLOAD PUSH1 0x5 DUP2 SWAP1 SSTORE POP DUP1 PUSH1 0xA0 ADD MLOAD PUSH1 0x6 DUP2 SWAP1 SSTORE POP POP PUSH3 0xAF8 JUMP JUMPDEST PUSH1 0x0 DUP1 PUSH1 0x0 SWAP1 SLOAD SWAP1 PUSH2 0x100 EXP SWAP1 DIV PUSH20 0xFFFFFFFFFFFFFFFFFFFFFFFFFFFFFFFFFFFFFFFF AND SWAP1 POP DUP2 PUSH1 0x0 DUP1 PUSH2 0x100 EXP DUP2 SLOAD DUP2 PUSH20 0xFFFFFFFFFFFFFFFFFFFFFFFFFFFFFFFFFFFFFFFF MUL NOT AND SWAP1 DUP4 PUSH20 0xFFFFFFFFFFFFFFFFFFFFFFFFFFFFFFFFFFFFFFFF AND MUL OR SWAP1 SSTORE POP DUP2 PUSH20 0xFFFFFFFFFFFFFFFFFFFFFFFFFFFFFFFFFFFFFFFF AND DUP2 PUSH20 0xFFFFFFFFFFFFFFFFFFFFFFFFFFFFFFFFFFFFFFFF AND PUSH32 0x8BE0079C531659141344CD1FD0A4F28419497F9722A3DAAFE3B4186F6B6457E0 PUSH1 0x40 MLOAD PUSH1 0x40 MLOAD DUP1 SWAP2 SUB SWAP1 LOG3 POP POP JUMP JUMPDEST DUP3 DUP1 SLOAD DUP3 DUP3 SSTORE SWAP1 PUSH1 0x0 MSTORE PUSH1 0x20 PUSH1 0x0 KECCAK256 SWAP1 PUSH1 0x1F ADD PUSH1 0x20 SWAP1 DIV DUP2 ADD SWAP3 DUP3 ISZERO PUSH3 0x2DA JUMPI SWAP2 PUSH1 0x20 MUL DUP3 ADD PUSH1 0x0 JUMPDEST DUP4 DUP3 GT ISZERO PUSH3 0x2A9 JUMPI DUP4 MLOAD DUP4 DUP3 PUSH2 0x100 EXP DUP2 SLOAD DUP2 PUSH1 0xFF MUL NOT AND SWAP1 DUP4 PUSH1 0xFF AND MUL OR SWAP1 SSTORE POP SWAP3 PUSH1 0x20 ADD SWAP3 PUSH1 0x1 ADD PUSH1 0x20 DUP2 PUSH1 0x0 ADD DIV SWAP3 DUP4 ADD SWAP3 PUSH1 0x1 SUB MUL PUSH3 0x269 JUMP JUMPDEST DUP1 ISZERO PUSH3 0x2D8 JUMPI DUP3 DUP2 PUSH2 0x100 EXP DUP2 SLOAD SWAP1 PUSH1 0xFF MUL NOT AND SWAP1 SSTORE PUSH1 0x1 ADD PUSH1 0x20 DUP2 PUSH1 0x0 ADD DIV SWAP3 DUP4 ADD SWAP3 PUSH1 0x1 SUB MUL PUSH3 0x2A9 JUMP JUMPDEST POP JUMPDEST POP SWAP1 POP PUSH3 0x2E9 SWAP2 SWAP1 PUSH3 0x2ED JUMP JUMPDEST POP SWAP1 JUMP JUMPDEST JUMPDEST DUP1 DUP3 GT ISZERO PUSH3 0x308 JUMPI PUSH1 0x0 DUP2 PUSH1 0x0 SWAP1 SSTORE POP PUSH1 0x1 ADD PUSH3 0x2EE JUMP JUMPDEST POP SWAP1 JUMP JUMPDEST PUSH1 0x0 PUSH1 0x40 MLOAD SWAP1 POP SWAP1 JUMP JUMPDEST PUSH1 0x0 DUP1 REVERT JUMPDEST PUSH1 0x0 DUP1 REVERT JUMPDEST PUSH1 0x0 DUP1 REVERT JUMPDEST PUSH1 0x0 PUSH1 0x1F NOT PUSH1 0x1F DUP4 ADD AND SWAP1 POP SWAP2 SWAP1 POP JUMP JUMPDEST PUSH32 0x4E487B7100000000000000000000000000000000000000000000000000000000 PUSH1 0x0 MSTORE PUSH1 0x41 PUSH1 0x4 MSTORE PUSH1 0x24 PUSH1 0x0 REVERT JUMPDEST PUSH3 0x370 DUP3 PUSH3 0x325 JUMP JUMPDEST DUP2 ADD DUP2 DUP2 LT PUSH8 0xFFFFFFFFFFFFFFFF DUP3 GT OR ISZERO PUSH3 0x392 JUMPI PUSH3 0x391 PUSH3 0x336 JUMP JUMPDEST JUMPDEST DUP1 PUSH1 0x40 MSTORE POP POP POP JUMP JUMPDEST PUSH1 0x0 PUSH3 0x3A7 PUSH3 0x30C JUMP JUMPDEST SWAP1 POP PUSH3 0x3B5 DUP3 DUP3 PUSH3 0x365 JUMP JUMPDEST SWAP2 SWAP1 POP JUMP JUMPDEST PUSH1 0x0 DUP1 REVERT JUMPDEST PUSH1 0x0 DUP1 REVERT JUMPDEST PUSH1 0x0 DUP1 REVERT JUMPDEST PUSH1 0x0 PUSH8 0xFFFFFFFFFFFFFFFF DUP3 GT ISZERO PUSH3 0x3E7 JUMPI PUSH3 0x3E6 PUSH3 0x336 JUMP JUMPDEST JUMPDEST PUSH3 0x3F2 DUP3 PUSH3 0x325 JUMP JUMPDEST SWAP1 POP PUSH1 0x20 DUP2 ADD SWAP1 POP SWAP2 SWAP1 POP JUMP JUMPDEST PUSH1 0x0 JUMPDEST DUP4 DUP2 LT ISZERO PUSH3 0x41F JUMPI DUP1 DUP3 ADD MLOAD DUP2 DUP5 ADD MSTORE PUSH1 0x20 DUP2 ADD SWAP1 POP PUSH3 0x402 JUMP JUMPDEST PUSH1 0x0 DUP5 DUP5 ADD MSTORE POP POP POP POP JUMP JUMPDEST PUSH1 0x0 PUSH3 0x442 PUSH3 0x43C DUP5 PUSH3 0x3C9 JUMP JUMPDEST PUSH3 0x39B JUMP JUMPDEST SWAP1 POP DUP3 DUP2 MSTORE PUSH1 0x20 DUP2 ADD DUP5 DUP5 DUP5 ADD GT ISZERO PUSH3 0x461 JUMPI PUSH3 0x460 PUSH3 0x3C4 JUMP JUMPDEST JUMPDEST PUSH3 0x46E DUP5 DUP3 DUP6 PUSH3 0x3FF JUMP JUMPDEST POP SWAP4 SWAP3 POP POP POP JUMP JUMPDEST PUSH1 0x0 DUP3 PUSH1 0x1F DUP4 ADD SLT PUSH3 0x48E JUMPI PUSH3 0x48D PUSH3 0x3BF JUMP JUMPDEST JUMPDEST DUP2 MLOAD PUSH3 0x4A0 DUP5 DUP3 PUSH1 0x20 DUP7 ADD PUSH3 0x42B JUMP JUMPDEST SWAP2 POP POP SWAP3 SWAP2 POP POP JUMP JUMPDEST PUSH1 0x0 PUSH8 0xFFFFFFFFFFFFFFFF DUP3 GT ISZERO PUSH3 0x4C7 JUMPI PUSH3 0x4C6 PUSH3 0x336 JUMP JUMPDEST JUMPDEST PUSH1 0x20 DUP3 MUL SWAP1 POP PUSH1 0x20 DUP2 ADD SWAP1 POP SWAP2 SWAP1 POP JUMP JUMPDEST PUSH1 0x0 DUP1 REVERT JUMPDEST PUSH1 0x0 PUSH1 0xFF DUP3 AND SWAP1 POP SWAP2 SWAP1 POP JUMP JUMPDEST PUSH3 0x4F5 DUP2 PUSH3 0x4DD JUMP JUMPDEST DUP2 EQ PUSH3 0x501 JUMPI PUSH1 0x0 DUP1 REVERT JUMPDEST POP JUMP JUMPDEST PUSH1 0x0 DUP2 MLOAD SWAP1 POP PUSH3 0x515 DUP2 PUSH3 0x4EA JUMP JUMPDEST SWAP3 SWAP2 POP POP JUMP JUMPDEST PUSH1 0x0 PUSH3 0x532 PUSH3 0x52C DUP5 PUSH3 0x4A9 JUMP JUMPDEST PUSH3 0x39B JUMP JUMPDEST SWAP1 POP DUP1 DUP4 DUP3 MSTORE PUSH1 0x20 DUP3 ADD SWAP1 POP PUSH1 0x20 DUP5 MUL DUP4 ADD DUP6 DUP2 GT ISZERO PUSH3 0x558 JUMPI PUSH3 0x557 PUSH3 0x4D8 JUMP JUMPDEST JUMPDEST DUP4 JUMPDEST DUP2 DUP2 LT ISZERO PUSH3 0x585 JUMPI DUP1 PUSH3 0x570 DUP9 DUP3 PUSH3 0x504 JUMP JUMPDEST DUP5 MSTORE PUSH1 0x20 DUP5 ADD SWAP4 POP POP PUSH1 0x20 DUP2 ADD SWAP1 POP PUSH3 0x55A JUMP JUMPDEST POP POP POP SWAP4 SWAP3 POP POP POP JUMP JUMPDEST PUSH1 0x0 DUP3 PUSH1 0x1F DUP4 ADD SLT PUSH3 0x5A7 JUMPI PUSH3 0x5A6 PUSH3 0x3BF JUMP JUMPDEST JUMPDEST DUP2 MLOAD PUSH3 0x5B9 DUP5 DUP3 PUSH1 0x20 DUP7 ADD PUSH3 0x51B JUMP JUMPDEST SWAP2 POP POP SWAP3 SWAP2 POP POP JUMP JUMPDEST PUSH1 0x0 PUSH20 0xFFFFFFFFFFFFFFFFFFFFFFFFFFFFFFFFFFFFFFFF DUP3 AND SWAP1 POP SWAP2 SWAP1 POP JUMP JUMPDEST PUSH1 0x0 PUSH3 0x5EF DUP3 PUSH3 0x5C2 JUMP JUMPDEST SWAP1 POP SWAP2 SWAP1 POP JUMP JUMPDEST PUSH3 0x601 DUP2 PUSH3 0x5E2 JUMP JUMPDEST DUP2 EQ PUSH3 0x60D JUMPI PUSH1 0x0 DUP1 REVERT JUMPDEST POP JUMP JUMPDEST PUSH1 0x0 DUP2 MLOAD SWAP1 POP PUSH3 0x621 DUP2 PUSH3 0x5F6 JUMP JUMPDEST SWAP3 SWAP2 POP POP JUMP JUMPDEST PUSH1 0x0 DUP2 SWAP1 POP SWAP2 SWAP1 POP JUMP JUMPDEST PUSH3 0x63C DUP2 PUSH3 0x627 JUMP JUMPDEST DUP2 EQ PUSH3 0x648 JUMPI PUSH1 0x0 DUP1 REVERT JUMPDEST POP JUMP JUMPDEST PUSH1 0x0 DUP2 MLOAD SWAP1 POP PUSH3 0x65C DUP2 PUSH3 0x631 JUMP JUMPDEST SWAP3 SWAP2 POP POP JUMP JUMPDEST PUSH1 0x0 PUSH1 0xC0 DUP3 DUP5 SUB SLT ISZERO PUSH3 0x67B JUMPI PUSH3 0x67A PUSH3 0x320 JUMP JUMPDEST JUMPDEST PUSH3 0x687 PUSH1 0xC0 PUSH3 0x39B JUMP JUMPDEST SWAP1 POP PUSH1 0x0 DUP3 ADD MLOAD PUSH8 0xFFFFFFFFFFFFFFFF DUP2 GT ISZERO PUSH3 0x6AA JUMPI PUSH3 0x6A9 PUSH3 0x3BA JUMP JUMPDEST JUMPDEST PUSH3 0x6B8 DUP5 DUP3 DUP6 ADD PUSH3 0x476 JUMP JUMPDEST PUSH1 0x0 DUP4 ADD MSTORE POP PUSH1 0x20 DUP3 ADD MLOAD PUSH8 0xFFFFFFFFFFFFFFFF DUP2 GT ISZERO PUSH3 0x6DF JUMPI PUSH3 0x6DE PUSH3 0x3BA JUMP JUMPDEST JUMPDEST PUSH3 0x6ED DUP5 DUP3 DUP6 ADD PUSH3 0x58F JUMP JUMPDEST PUSH1 0x20 DUP4 ADD MSTORE POP PUSH1 0x40 PUSH3 0x703 DUP5 DUP3 DUP6 ADD PUSH3 0x610 JUMP JUMPDEST PUSH1 0x40 DUP4 ADD MSTORE POP PUSH1 0x60 PUSH3 0x719 DUP5 DUP3 DUP6 ADD PUSH3 0x64B JUMP JUMPDEST PUSH1 0x60 DUP4 ADD MSTORE POP PUSH1 0x80 PUSH3 0x72F DUP5 DUP3 DUP6 ADD PUSH3 0x64B JUMP JUMPDEST PUSH1 0x80 DUP4 ADD MSTORE POP PUSH1 0xA0 PUSH3 0x745 DUP5 DUP3 DUP6 ADD PUSH3 0x64B JUMP JUMPDEST PUSH1 0xA0 DUP4 ADD MSTORE POP SWAP3 SWAP2 POP POP JUMP JUMPDEST PUSH1 0x0 PUSH1 0x20 DUP3 DUP5 SUB SLT ISZERO PUSH3 0x76A JUMPI PUSH3 0x769 PUSH3 0x316 JUMP JUMPDEST JUMPDEST PUSH1 0x0 DUP3 ADD MLOAD PUSH8 0xFFFFFFFFFFFFFFFF DUP2 GT ISZERO PUSH3 0x78B JUMPI PUSH3 0x78A PUSH3 0x31B JUMP JUMPDEST JUMPDEST PUSH3 0x799 DUP5 DUP3 DUP6 ADD PUSH3 0x662 JUMP JUMPDEST SWAP2 POP POP SWAP3 SWAP2 POP POP JUMP JUMPDEST PUSH3 0x7AD DUP2 PUSH3 0x5E2 JUMP JUMPDEST DUP3 MSTORE POP POP JUMP JUMPDEST PUSH1 0x0 PUSH1 0x20 DUP3 ADD SWAP1 POP PUSH3 0x7CA PUSH1 0x0 DUP4 ADD DUP5 PUSH3 0x7A2 JUMP JUMPDEST SWAP3 SWAP2 POP POP JUMP JUMPDEST PUSH1 0x0 DUP2 MLOAD SWAP1 POP SWAP2 SWAP1 POP JUMP JUMPDEST PUSH32 0x4E487B7100000000000000000000000000000000000000000000000000000000 PUSH1 0x0 MSTORE PUSH1 0x22 PUSH1 0x4 MSTORE PUSH1 0x24 PUSH1 0x0 REVERT JUMPDEST PUSH1 0x0 PUSH1 0x2 DUP3 DIV SWAP1 POP PUSH1 0x1 DUP3 AND DUP1 PUSH3 0x823 JUMPI PUSH1 0x7F DUP3 AND SWAP2 POP JUMPDEST PUSH1 0x20 DUP3 LT DUP2 SUB PUSH3 0x839 JUMPI PUSH3 0x838 PUSH3 0x7DB JUMP JUMPDEST JUMPDEST POP SWAP2 SWAP1 POP JUMP JUMPDEST PUSH1 0x0 DUP2 SWAP1 POP DUP2 PUSH1 0x0 MSTORE PUSH1 0x20 PUSH1 0x0 KECCAK256 SWAP1 POP SWAP2 SWAP1 POP JUMP JUMPDEST PUSH1 0x0 PUSH1 0x20 PUSH1 0x1F DUP4 ADD DIV SWAP1 POP SWAP2 SWAP1 POP JUMP JUMPDEST PUSH1 0x0 DUP3 DUP3 SHL SWAP1 POP SWAP3 SWAP2 POP POP JUMP JUMPDEST PUSH1 0x0 PUSH1 0x8 DUP4 MUL PUSH3 0x8A3 PUSH32 0xFFFFFFFFFFFFFFFFFFFFFFFFFFFFFFFFFFFFFFFFFFFFFFFFFFFFFFFFFFFFFFFF DUP3 PUSH3 0x864 JUMP JUMPDEST PUSH3 0x8AF DUP7 DUP4 PUSH3 0x864 JUMP JUMPDEST SWAP6 POP DUP1 NOT DUP5 AND SWAP4 POP DUP1 DUP7 AND DUP5 OR SWAP3 POP POP POP SWAP4 SWAP3 POP POP POP JUMP JUMPDEST PUSH1 0x0 DUP2 SWAP1 POP SWAP2 SWAP1 POP JUMP JUMPDEST PUSH1 0x0 PUSH3 0x8F2 PUSH3 0x8EC PUSH3 0x8E6 DUP5 PUSH3 0x627 JUMP JUMPDEST PUSH3 0x8C7 JUMP JUMPDEST PUSH3 0x627 JUMP JUMPDEST SWAP1 POP SWAP2 SWAP1 POP JUMP JUMPDEST PUSH1 0x0 DUP2 SWAP1 POP SWAP2 SWAP1 POP JUMP JUMPDEST PUSH3 0x90E DUP4 PUSH3 0x8D1 JUMP JUMPDEST PUSH3 0x926 PUSH3 0x91D DUP3 PUSH3 0x8F9 JUMP JUMPDEST DUP5 DUP5 SLOAD PUSH3 0x871 JUMP JUMPDEST DUP3 SSTORE POP POP POP POP JUMP JUMPDEST PUSH1 0x0 SWAP1 JUMP JUMPDEST PUSH3 0x93D PUSH3 0x92E JUMP JUMPDEST PUSH3 0x94A DUP2 DUP5 DUP5 PUSH3 0x903 JUMP JUMPDEST POP POP POP JUMP JUMPDEST JUMPDEST DUP2 DUP2 LT ISZERO PUSH3 0x972 JUMPI PUSH3 0x966 PUSH1 0x0 DUP3 PUSH3 0x933 JUMP JUMPDEST PUSH1 0x1 DUP2 ADD SWAP1 POP PUSH3 0x950 JUMP JUMPDEST POP POP JUMP JUMPDEST PUSH1 0x1F DUP3 GT ISZERO PUSH3 0x9C1 JUMPI PUSH3 0x98B DUP2 PUSH3 0x83F JUMP JUMPDEST PUSH3 0x996 DUP5 PUSH3 0x854 JUMP JUMPDEST DUP2 ADD PUSH1 0x20 DUP6 LT ISZERO PUSH3 0x9A6 JUMPI DUP2 SWAP1 POP JUMPDEST PUSH3 0x9BE PUSH3 0x9B5 DUP6 PUSH3 0x854 JUMP JUMPDEST DUP4 ADD DUP3 PUSH3 0x94F JUMP JUMPDEST POP POP JUMPDEST POP POP POP JUMP JUMPDEST PUSH1 0x0 DUP3 DUP3 SHR SWAP1 POP SWAP3 SWAP2 POP POP JUMP JUMPDEST PUSH1 0x0 PUSH3 0x9E6 PUSH1 0x0 NOT DUP5 PUSH1 0x8 MUL PUSH3 0x9C6 JUMP JUMPDEST NOT DUP1 DUP4 AND SWAP2 POP POP SWAP3 SWAP2 POP POP JUMP JUMPDEST PUSH1 0x0 PUSH3 0xA01 DUP4 DUP4 PUSH3 0x9D3 JUMP JUMPDEST SWAP2 POP DUP3 PUSH1 0x2 MUL DUP3 OR SWAP1 POP SWAP3 SWAP2 POP POP JUMP JUMPDEST PUSH3 0xA1C DUP3 PUSH3 0x7D0 JUMP JUMPDEST PUSH8 0xFFFFFFFFFFFFFFFF DUP2 GT ISZERO PUSH3 0xA38 JUMPI PUSH3 0xA37 PUSH3 0x336 JUMP JUMPDEST JUMPDEST PUSH3 0xA44 DUP3 SLOAD PUSH3 0x80A JUMP JUMPDEST PUSH3 0xA51 DUP3 DUP3 DUP6 PUSH3 0x976 JUMP JUMPDEST PUSH1 0x0 PUSH1 0x20 SWAP1 POP PUSH1 0x1F DUP4 GT PUSH1 0x1 DUP2 EQ PUSH3 0xA89 JUMPI PUSH1 0x0 DUP5 ISZERO PUSH3 0xA74 JUMPI DUP3 DUP8 ADD MLOAD SWAP1 POP JUMPDEST PUSH3 0xA80 DUP6 DUP3 PUSH3 0x9F3 JUMP JUMPDEST DUP7 SSTORE POP PUSH3 0xAF0 JUMP JUMPDEST PUSH1 0x1F NOT DUP5 AND PUSH3 0xA99 DUP7 PUSH3 0x83F JUMP JUMPDEST PUSH1 0x0 JUMPDEST DUP3 DUP2 LT ISZERO PUSH3 0xAC3 JUMPI DUP5 DUP10 ADD MLOAD DUP3 SSTORE PUSH1 0x1 DUP3 ADD SWAP2 POP PUSH1 0x20 DUP6 ADD SWAP5 POP PUSH1 0x20 DUP2 ADD SWAP1 POP PUSH3 0xA9C JUMP JUMPDEST DUP7 DUP4 LT ISZERO PUSH3 0xAE3 JUMPI DUP5 DUP10 ADD MLOAD PUSH3 0xADF PUSH1 0x1F DUP10 AND DUP3 PUSH3 0x9D3 JUMP JUMPDEST DUP4 SSTORE POP JUMPDEST PUSH1 0x1 PUSH1 0x2 DUP9 MUL ADD DUP9 SSTORE POP POP POP JUMPDEST POP POP POP POP POP POP JUMP JUMPDEST PUSH2 0x137A DUP1 PUSH3 0xB08 PUSH1 0x0 CODECOPY PUSH1 0x0 RETURN INVALID PUSH1 0x80 PUSH1 0x40 MSTORE CALLVALUE DUP1 ISZERO PUSH2 0x10 JUMPI PUSH1 0x0 DUP1 REVERT JUMPDEST POP PUSH1 0x4 CALLDATASIZE LT PUSH2 0xCF JUMPI PUSH1 0x0 CALLDATALOAD PUSH1 0xE0 SHR DUP1 PUSH4 0x88DDB0A6 GT PUSH2 0x8C JUMPI DUP1 PUSH4 0x9D76EA58 GT PUSH2 0x66 JUMPI DUP1 PUSH4 0x9D76EA58 EQ PUSH2 0x1B6 JUMPI DUP1 PUSH4 0xA4DDA86C EQ PUSH2 0x1D4 JUMPI DUP1 PUSH4 0xC24A0F8B EQ PUSH2 0x204 JUMPI DUP1 PUSH4 0xF2FDE38B EQ PUSH2 0x222 JUMPI PUSH2 0xCF JUMP JUMPDEST DUP1 PUSH4 0x88DDB0A6 EQ PUSH2 0x15E JUMPI DUP1 PUSH4 0x8DA5CB5B EQ PUSH2 0x17A JUMPI DUP1 PUSH4 0x9A1B4B38 EQ PUSH2 0x198 JUMPI PUSH2 0xCF JUMP JUMPDEST DUP1 PUSH4 0xB97BC86 EQ PUSH2 0xD4 JUMPI DUP1 PUSH4 0x33261481 EQ PUSH2 0xF2 JUMPI DUP1 PUSH4 0x4E71D92D EQ PUSH2 0x10E JUMPI DUP1 PUSH4 0x4EC18DB9 EQ PUSH2 0x118 JUMPI DUP1 PUSH4 0x62B8A764 EQ PUSH2 0x136 JUMPI DUP1 PUSH4 0x715018A6 EQ PUSH2 0x154 JUMPI JUMPDEST PUSH1 0x0 DUP1 REVERT JUMPDEST PUSH2 0xDC PUSH2 0x23E JUMP JUMPDEST PUSH1 0x40 MLOAD PUSH2 0xE9 SWAP2 SWAP1 PUSH2 0x92C JUMP JUMPDEST PUSH1 0x40 MLOAD DUP1 SWAP2 SUB SWAP1 RETURN JUMPDEST PUSH2 0x10C PUSH1 0x4 DUP1 CALLDATASIZE SUB DUP2 ADD SWAP1 PUSH2 0x107 SWAP2 SWAP1 PUSH2 0xAED JUMP JUMPDEST PUSH2 0x244 JUMP JUMPDEST STOP JUMPDEST PUSH2 0x116 PUSH2 0x421 JUMP JUMPDEST STOP JUMPDEST PUSH2 0x120 PUSH2 0x5F7 JUMP JUMPDEST PUSH1 0x40 MLOAD PUSH2 0x12D SWAP2 SWAP1 PUSH2 0x92C JUMP JUMPDEST PUSH1 0x40 MLOAD DUP1 SWAP2 SUB SWAP1 RETURN JUMPDEST PUSH2 0x13E PUSH2 0x5FD JUMP JUMPDEST PUSH1 0x40 MLOAD PUSH2 0x14B SWAP2 SWAP1 PUSH2 0xBB5 JUMP JUMPDEST PUSH1 0x40 MLOAD DUP1 SWAP2 SUB SWAP1 RETURN JUMPDEST PUSH2 0x15C PUSH2 0x68B JUMP JUMPDEST STOP JUMPDEST PUSH2 0x178 PUSH1 0x4 DUP1 CALLDATASIZE SUB DUP2 ADD SWAP1 PUSH2 0x173 SWAP2 SWAP1 PUSH2 0xC8C JUMP JUMPDEST PUSH2 0x69F JUMP JUMPDEST STOP JUMPDEST PUSH2 0x182 PUSH2 0x6B2 JUMP JUMPDEST PUSH1 0x40 MLOAD PUSH2 0x18F SWAP2 SWAP1 PUSH2 0xD16 JUMP JUMPDEST PUSH1 0x40 MLOAD DUP1 SWAP2 SUB SWAP1 RETURN JUMPDEST PUSH2 0x1A0 PUSH2 0x6DB JUMP JUMPDEST PUSH1 0x40 MLOAD PUSH2 0x1AD SWAP2 SWAP1 PUSH2 0xD40 JUMP JUMPDEST PUSH1 0x40 MLOAD DUP1 SWAP2 SUB SWAP1 RETURN JUMPDEST PUSH2 0x1BE PUSH2 0x6EE JUMP JUMPDEST PUSH1 0x40 MLOAD PUSH2 0x1CB SWAP2 SWAP1 PUSH2 0xD16 JUMP JUMPDEST PUSH1 0x40 MLOAD DUP1 SWAP2 SUB SWAP1 RETURN JUMPDEST PUSH2 0x1EE PUSH1 0x4 DUP1 CALLDATASIZE SUB DUP2 ADD SWAP1 PUSH2 0x1E9 SWAP2 SWAP1 PUSH2 0xD87 JUMP JUMPDEST PUSH2 0x714 JUMP JUMPDEST PUSH1 0x40 MLOAD PUSH2 0x1FB SWAP2 SWAP1 PUSH2 0xD40 JUMP JUMPDEST PUSH1 0x40 MLOAD DUP1 SWAP2 SUB SWAP1 RETURN JUMPDEST PUSH2 0x20C PUSH2 0x734 JUMP JUMPDEST PUSH1 0x40 MLOAD PUSH2 0x219 SWAP2 SWAP1 PUSH2 0x92C JUMP JUMPDEST PUSH1 0x40 MLOAD DUP1 SWAP2 SUB SWAP1 RETURN JUMPDEST PUSH2 0x23C PUSH1 0x4 DUP1 CALLDATASIZE SUB DUP2 ADD SWAP1 PUSH2 0x237 SWAP2 SWAP1 PUSH2 0xD87 JUMP JUMPDEST PUSH2 0x73A JUMP JUMPDEST STOP JUMPDEST PUSH1 0x5 SLOAD DUP2 JUMP JUMPDEST PUSH1 0x2 DUP1 SLOAD SWAP1 POP DUP2 MLOAD EQ PUSH2 0x28C JUMPI PUSH1 0x40 MLOAD PUSH32 0x8C379A000000000000000000000000000000000000000000000000000000000 DUP2 MSTORE PUSH1 0x4 ADD PUSH2 0x283 SWAP1 PUSH2 0xE00 JUMP JUMPDEST PUSH1 0x40 MLOAD DUP1 SWAP2 SUB SWAP1 REVERT JUMPDEST PUSH1 0x0 DUP1 JUMPDEST DUP3 MLOAD DUP2 PUSH1 0xFF AND LT ISZERO PUSH2 0x31E JUMPI PUSH1 0x2 DUP2 PUSH1 0xFF AND DUP2 SLOAD DUP2 LT PUSH2 0x2B3 JUMPI PUSH2 0x2B2 PUSH2 0xE20 JUMP JUMPDEST JUMPDEST SWAP1 PUSH1 0x0 MSTORE PUSH1 0x20 PUSH1 0x0 KECCAK256 SWAP1 PUSH1 0x20 SWAP2 DUP3 DUP3 DIV ADD SWAP2 SWAP1 MOD SWAP1 SLOAD SWAP1 PUSH2 0x100 EXP SWAP1 DIV PUSH1 0xFF AND PUSH1 0xFF AND DUP4 DUP3 PUSH1 0xFF AND DUP2 MLOAD DUP2 LT PUSH2 0x2EC JUMPI PUSH2 0x2EB PUSH2 0xE20 JUMP JUMPDEST JUMPDEST PUSH1 0x20 MUL PUSH1 0x20 ADD ADD MLOAD PUSH1 0xFF AND SUB PUSH2 0x30B JUMPI DUP2 DUP1 PUSH2 0x307 SWAP1 PUSH2 0xE7E JUMP JUMPDEST SWAP3 POP POP JUMPDEST DUP1 DUP1 PUSH2 0x316 SWAP1 PUSH2 0xE7E JUMP JUMPDEST SWAP2 POP POP PUSH2 0x290 JUMP JUMPDEST POP PUSH1 0x3 PUSH1 0x0 SWAP1 SLOAD SWAP1 PUSH2 0x100 EXP SWAP1 DIV PUSH1 0xFF AND PUSH1 0xFF AND DUP2 PUSH1 0xFF AND GT ISZERO PUSH2 0x377 JUMPI PUSH1 0x40 MLOAD PUSH32 0x8C379A000000000000000000000000000000000000000000000000000000000 DUP2 MSTORE PUSH1 0x4 ADD PUSH2 0x36E SWAP1 PUSH2 0xEF3 JUMP JUMPDEST PUSH1 0x40 MLOAD DUP1 SWAP2 SUB SWAP1 REVERT JUMPDEST DUP1 PUSH1 0x7 PUSH1 0x0 CALLER PUSH20 0xFFFFFFFFFFFFFFFFFFFFFFFFFFFFFFFFFFFFFFFF AND PUSH20 0xFFFFFFFFFFFFFFFFFFFFFFFFFFFFFFFFFFFFFFFF AND DUP2 MSTORE PUSH1 0x20 ADD SWAP1 DUP2 MSTORE PUSH1 0x20 ADD PUSH1 0x0 KECCAK256 PUSH1 0x0 PUSH2 0x100 EXP DUP2 SLOAD DUP2 PUSH1 0xFF MUL NOT AND SWAP1 DUP4 PUSH1 0xFF AND MUL OR SWAP1 SSTORE POP CALLER PUSH20 0xFFFFFFFFFFFFFFFFFFFFFFFFFFFFFFFFFFFFFFFF AND PUSH32 0xF8331BB89425BD281313A56DEA0AB2D03A1CF7447385E0E047802182AC08F939 DUP3 PUSH1 0x40 MLOAD PUSH2 0x415 SWAP2 SWAP1 PUSH2 0xD40 JUMP JUMPDEST PUSH1 0x40 MLOAD DUP1 SWAP2 SUB SWAP1 LOG2 POP POP JUMP JUMPDEST PUSH1 0x0 PUSH1 0x7 PUSH1 0x0 CALLER PUSH20 0xFFFFFFFFFFFFFFFFFFFFFFFFFFFFFFFFFFFFFFFF AND PUSH20 0xFFFFFFFFFFFFFFFFFFFFFFFFFFFFFFFFFFFFFFFF AND DUP2 MSTORE PUSH1 0x20 ADD SWAP1 DUP2 MSTORE PUSH1 0x20 ADD PUSH1 0x0 KECCAK256 PUSH1 0x0 SWAP1 SLOAD SWAP1 PUSH2 0x100 EXP SWAP1 DIV PUSH1 0xFF AND PUSH1 0xFF AND GT PUSH2 0x4B3 JUMPI PUSH1 0x40 MLOAD PUSH32 0x8C379A000000000000000000000000000000000000000000000000000000000 DUP2 MSTORE PUSH1 0x4 ADD PUSH2 0x4AA SWAP1 PUSH2 0xF5F JUMP JUMPDEST PUSH1 0x40 MLOAD DUP1 SWAP2 SUB SWAP1 REVERT JUMPDEST PUSH1 0x0 PUSH1 0x3 PUSH1 0x1 SWAP1 SLOAD SWAP1 PUSH2 0x100 EXP SWAP1 DIV PUSH20 0xFFFFFFFFFFFFFFFFFFFFFFFFFFFFFFFFFFFFFFFF AND PUSH20 0xFFFFFFFFFFFFFFFFFFFFFFFFFFFFFFFFFFFFFFFF AND PUSH4 0x70A08231 ADDRESS PUSH1 0x40 MLOAD DUP3 PUSH4 0xFFFFFFFF AND PUSH1 0xE0 SHL DUP2 MSTORE PUSH1 0x4 ADD PUSH2 0x510 SWAP2 SWAP1 PUSH2 0xD16 JUMP JUMPDEST PUSH1 0x20 PUSH1 0x40 MLOAD DUP1 DUP4 SUB DUP2 DUP7 GAS STATICCALL ISZERO DUP1 ISZERO PUSH2 0x52D JUMPI RETURNDATASIZE PUSH1 0x0 DUP1 RETURNDATACOPY RETURNDATASIZE PUSH1 0x0 REVERT JUMPDEST POP POP POP POP PUSH1 0x40 MLOAD RETURNDATASIZE PUSH1 0x1F NOT PUSH1 0x1F DUP3 ADD AND DUP3 ADD DUP1 PUSH1 0x40 MSTORE POP DUP2 ADD SWAP1 PUSH2 0x551 SWAP2 SWAP1 PUSH2 0xFAB JUMP JUMPDEST SWAP1 POP PUSH1 0x3 PUSH1 0x1 SWAP1 SLOAD SWAP1 PUSH2 0x100 EXP SWAP1 DIV PUSH20 0xFFFFFFFFFFFFFFFFFFFFFFFFFFFFFFFFFFFFFFFF AND PUSH20 0xFFFFFFFFFFFFFFFFFFFFFFFFFFFFFFFFFFFFFFFF AND PUSH4 0xA9059CBB CALLER DUP4 PUSH1 0x40 MLOAD DUP4 PUSH4 0xFFFFFFFF AND PUSH1 0xE0 SHL DUP2 MSTORE PUSH1 0x4 ADD PUSH2 0x5B0 SWAP3 SWAP2 SWAP1 PUSH2 0xFD8 JUMP JUMPDEST PUSH1 0x20 PUSH1 0x40 MLOAD DUP1 DUP4 SUB DUP2 PUSH1 0x0 DUP8 GAS CALL ISZERO DUP1 ISZERO PUSH2 0x5CF JUMPI RETURNDATASIZE PUSH1 0x0 DUP1 RETURNDATACOPY RETURNDATASIZE PUSH1 0x0 REVERT JUMPDEST POP POP POP POP PUSH1 0x40 MLOAD RETURNDATASIZE PUSH1 0x1F NOT PUSH1 0x1F DUP3 ADD AND DUP3 ADD DUP1 PUSH1 0x40 MSTORE POP DUP2 ADD SWAP1 PUSH2 0x5F3 SWAP2 SWAP1 PUSH2 0x1039 JUMP JUMPDEST POP POP JUMP JUMPDEST PUSH1 0x4 SLOAD DUP2 JUMP JUMPDEST PUSH1 0x1 DUP1 SLOAD PUSH2 0x60A SWAP1 PUSH2 0x1095 JUMP JUMPDEST DUP1 PUSH1 0x1F ADD PUSH1 0x20 DUP1 SWAP2 DIV MUL PUSH1 0x20 ADD PUSH1 0x40 MLOAD SWAP1 DUP2 ADD PUSH1 0x40 MSTORE DUP1 SWAP3 SWAP2 SWAP1 DUP2 DUP2 MSTORE PUSH1 0x20 ADD DUP3 DUP1 SLOAD PUSH2 0x636 SWAP1 PUSH2 0x1095 JUMP JUMPDEST DUP1 ISZERO PUSH2 0x683 JUMPI DUP1 PUSH1 0x1F LT PUSH2 0x658 JUMPI PUSH2 0x100 DUP1 DUP4 SLOAD DIV MUL DUP4 MSTORE SWAP2 PUSH1 0x20 ADD SWAP2 PUSH2 0x683 JUMP JUMPDEST DUP3 ADD SWAP2 SWAP1 PUSH1 0x0 MSTORE PUSH1 0x20 PUSH1 0x0 KECCAK256 SWAP1 JUMPDEST DUP2 SLOAD DUP2 MSTORE SWAP1 PUSH1 0x1 ADD SWAP1 PUSH1 0x20 ADD DUP1 DUP4 GT PUSH2 0x666 JUMPI DUP3 SWAP1 SUB PUSH1 0x1F AND DUP3 ADD SWAP2 JUMPDEST POP POP POP POP POP DUP2 JUMP JUMPDEST PUSH2 0x693 PUSH2 0x7C0 JUMP JUMPDEST PUSH2 0x69D PUSH1 0x0 PUSH2 0x847 JUMP JUMPDEST JUMP JUMPDEST DUP1 PUSH1 0x1 SWAP1 DUP2 PUSH2 0x6AE SWAP2 SWAP1 PUSH2 0x1272 JUMP JUMPDEST POP POP JUMP JUMPDEST PUSH1 0x0 DUP1 PUSH1 0x0 SWAP1 SLOAD SWAP1 PUSH2 0x100 EXP SWAP1 DIV PUSH20 0xFFFFFFFFFFFFFFFFFFFFFFFFFFFFFFFFFFFFFFFF AND SWAP1 POP SWAP1 JUMP JUMPDEST PUSH1 0x3 PUSH1 0x0 SWAP1 SLOAD SWAP1 PUSH2 0x100 EXP SWAP1 DIV PUSH1 0xFF AND DUP2 JUMP JUMPDEST PUSH1 0x3 PUSH1 0x1 SWAP1 SLOAD SWAP1 PUSH2 0x100 EXP SWAP1 DIV PUSH20 0xFFFFFFFFFFFFFFFFFFFFFFFFFFFFFFFFFFFFFFFF AND DUP2 JUMP JUMPDEST PUSH1 0x7 PUSH1 0x20 MSTORE DUP1 PUSH1 0x0 MSTORE PUSH1 0x40 PUSH1 0x0 KECCAK256 PUSH1 0x0 SWAP2 POP SLOAD SWAP1 PUSH2 0x100 EXP SWAP1 DIV PUSH1 0xFF AND DUP2 JUMP JUMPDEST PUSH1 0x6 SLOAD DUP2 JUMP JUMPDEST PUSH2 0x742 PUSH2 0x7C0 JUMP JUMPDEST PUSH1 0x0 PUSH20 0xFFFFFFFFFFFFFFFFFFFFFFFFFFFFFFFFFFFFFFFF AND DUP2 PUSH20 0xFFFFFFFFFFFFFFFFFFFFFFFFFFFFFFFFFFFFFFFF AND SUB PUSH2 0x7B4 JUMPI PUSH1 0x0 PUSH1 0x40 MLOAD PUSH32 0x1E4FBDF700000000000000000000000000000000000000000000000000000000 DUP2 MSTORE PUSH1 0x4 ADD PUSH2 0x7AB SWAP2 SWAP1 PUSH2 0xD16 JUMP JUMPDEST PUSH1 0x40 MLOAD DUP1 SWAP2 SUB SWAP1 REVERT JUMPDEST PUSH2 0x7BD DUP2 PUSH2 0x847 JUMP JUMPDEST POP JUMP JUMPDEST PUSH2 0x7C8 PUSH2 0x90B JUMP JUMPDEST PUSH20 0xFFFFFFFFFFFFFFFFFFFFFFFFFFFFFFFFFFFFFFFF AND PUSH2 0x7E6 PUSH2 0x6B2 JUMP JUMPDEST PUSH20 0xFFFFFFFFFFFFFFFFFFFFFFFFFFFFFFFFFFFFFFFF AND EQ PUSH2 0x845 JUMPI PUSH2 0x809 PUSH2 0x90B JUMP JUMPDEST PUSH1 0x40 MLOAD PUSH32 0x118CDAA700000000000000000000000000000000000000000000000000000000 DUP2 MSTORE PUSH1 0x4 ADD PUSH2 0x83C SWAP2 SWAP1 PUSH2 0xD16 JUMP JUMPDEST PUSH1 0x40 MLOAD DUP1 SWAP2 SUB SWAP1 REVERT JUMPDEST JUMP JUMPDEST PUSH1 0x0 DUP1 PUSH1 0x0 SWAP1 SLOAD SWAP1 PUSH2 0x100 EXP SWAP1 DIV PUSH20 0xFFFFFFFFFFFFFFFFFFFFFFFFFFFFFFFFFFFFFFFF AND SWAP1 POP DUP2 PUSH1 0x0 DUP1 PUSH2 0x100 EXP DUP2 SLOAD DUP2 PUSH20 0xFFFFFFFFFFFFFFFFFFFFFFFFFFFFFFFFFFFFFFFF MUL NOT AND SWAP1 DUP4 PUSH20 0xFFFFFFFFFFFFFFFFFFFFFFFFFFFFFFFFFFFFFFFF AND MUL OR SWAP1 SSTORE POP DUP2 PUSH20 0xFFFFFFFFFFFFFFFFFFFFFFFFFFFFFFFFFFFFFFFF AND DUP2 PUSH20 0xFFFFFFFFFFFFFFFFFFFFFFFFFFFFFFFFFFFFFFFF AND PUSH32 0x8BE0079C531659141344CD1FD0A4F28419497F9722A3DAAFE3B4186F6B6457E0 PUSH1 0x40 MLOAD PUSH1 0x40 MLOAD DUP1 SWAP2 SUB SWAP1 LOG3 POP POP JUMP JUMPDEST PUSH1 0x0 CALLER SWAP1 POP SWAP1 JUMP JUMPDEST PUSH1 0x0 DUP2 SWAP1 POP SWAP2 SWAP1 POP JUMP JUMPDEST PUSH2 0x926 DUP2 PUSH2 0x913 JUMP JUMPDEST DUP3 MSTORE POP POP JUMP JUMPDEST PUSH1 0x0 PUSH1 0x20 DUP3 ADD SWAP1 POP PUSH2 0x941 PUSH1 0x0 DUP4 ADD DUP5 PUSH2 0x91D JUMP JUMPDEST SWAP3 SWAP2 POP POP JUMP JUMPDEST PUSH1 0x0 PUSH1 0x40 MLOAD SWAP1 POP SWAP1 JUMP JUMPDEST PUSH1 0x0 DUP1 REVERT JUMPDEST PUSH1 0x0 DUP1 REVERT JUMPDEST PUSH1 0x0 DUP1 REVERT JUMPDEST PUSH1 0x0 PUSH1 0x1F NOT PUSH1 0x1F DUP4 ADD AND SWAP1 POP SWAP2 SWAP1 POP JUMP JUMPDEST PUSH32 0x4E487B7100000000000000000000000000000000000000000000000000000000 PUSH1 0x0 MSTORE PUSH1 0x41 PUSH1 0x4 MSTORE PUSH1 0x24 PUSH1 0x0 REVERT JUMPDEST PUSH2 0x9A9 DUP3 PUSH2 0x960 JUMP JUMPDEST DUP2 ADD DUP2 DUP2 LT PUSH8 0xFFFFFFFFFFFFFFFF DUP3 GT OR ISZERO PUSH2 0x9C8 JUMPI PUSH2 0x9C7 PUSH2 0x971 JUMP JUMPDEST JUMPDEST DUP1 PUSH1 0x40 MSTORE POP POP POP JUMP JUMPDEST PUSH1 0x0 PUSH2 0x9DB PUSH2 0x947 JUMP JUMPDEST SWAP1 POP PUSH2 0x9E7 DUP3 DUP3 PUSH2 0x9A0 JUMP JUMPDEST SWAP2 SWAP1 POP JUMP JUMPDEST PUSH1 0x0 PUSH8 0xFFFFFFFFFFFFFFFF DUP3 GT ISZERO PUSH2 0xA07 JUMPI PUSH2 0xA06 PUSH2 0x971 JUMP JUMPDEST JUMPDEST PUSH1 0x20 DUP3 MUL SWAP1 POP PUSH1 0x20 DUP2 ADD SWAP1 POP SWAP2 SWAP1 POP JUMP JUMPDEST PUSH1 0x0 DUP1 REVERT JUMPDEST PUSH1 0x0 PUSH1 0xFF DUP3 AND SWAP1 POP SWAP2 SWAP1 POP JUMP JUMPDEST PUSH2 0xA33 DUP2 PUSH2 0xA1D JUMP JUMPDEST DUP2 EQ PUSH2 0xA3E JUMPI PUSH1 0x0 DUP1 REVERT JUMPDEST POP JUMP JUMPDEST PUSH1 0x0 DUP2 CALLDATALOAD SWAP1 POP PUSH2 0xA50 DUP2 PUSH2 0xA2A JUMP JUMPDEST SWAP3 SWAP2 POP POP JUMP JUMPDEST PUSH1 0x0 PUSH2 0xA69 PUSH2 0xA64 DUP5 PUSH2 0x9EC JUMP JUMPDEST PUSH2 0x9D1 JUMP JUMPDEST SWAP1 POP DUP1 DUP4 DUP3 MSTORE PUSH1 0x20 DUP3 ADD SWAP1 POP PUSH1 0x20 DUP5 MUL DUP4 ADD DUP6 DUP2 GT ISZERO PUSH2 0xA8C JUMPI PUSH2 0xA8B PUSH2 0xA18 JUMP JUMPDEST JUMPDEST DUP4 JUMPDEST DUP2 DUP2 LT ISZERO PUSH2 0xAB5 JUMPI DUP1 PUSH2 0xAA1 DUP9 DUP3 PUSH2 0xA41 JUMP JUMPDEST DUP5 MSTORE PUSH1 0x20 DUP5 ADD SWAP4 POP POP PUSH1 0x20 DUP2 ADD SWAP1 POP PUSH2 0xA8E JUMP JUMPDEST POP POP POP SWAP4 SWAP3 POP POP POP JUMP JUMPDEST PUSH1 0x0 DUP3 PUSH1 0x1F DUP4 ADD SLT PUSH2 0xAD4 JUMPI PUSH2 0xAD3 PUSH2 0x95B JUMP JUMPDEST JUMPDEST DUP2 CALLDATALOAD PUSH2 0xAE4 DUP5 DUP3 PUSH1 0x20 DUP7 ADD PUSH2 0xA56 JUMP JUMPDEST SWAP2 POP POP SWAP3 SWAP2 POP POP JUMP JUMPDEST PUSH1 0x0 PUSH1 0x20 DUP3 DUP5 SUB SLT ISZERO PUSH2 0xB03 JUMPI PUSH2 0xB02 PUSH2 0x951 JUMP JUMPDEST JUMPDEST PUSH1 0x0 DUP3 ADD CALLDATALOAD PUSH8 0xFFFFFFFFFFFFFFFF DUP2 GT ISZERO PUSH2 0xB21 JUMPI PUSH2 0xB20 PUSH2 0x956 JUMP JUMPDEST JUMPDEST PUSH2 0xB2D DUP5 DUP3 DUP6 ADD PUSH2 0xABF JUMP JUMPDEST SWAP2 POP POP SWAP3 SWAP2 POP POP JUMP JUMPDEST PUSH1 0x0 DUP2 MLOAD SWAP1 POP SWAP2 SWAP1 POP JUMP JUMPDEST PUSH1 0x0 DUP3 DUP3 MSTORE PUSH1 0x20 DUP3 ADD SWAP1 POP SWAP3 SWAP2 POP POP JUMP JUMPDEST PUSH1 0x0 JUMPDEST DUP4 DUP2 LT ISZERO PUSH2 0xB70 JUMPI DUP1 DUP3 ADD MLOAD DUP2 DUP5 ADD MSTORE PUSH1 0x20 DUP2 ADD SWAP1 POP PUSH2 0xB55 JUMP JUMPDEST PUSH1 0x0 DUP5 DUP5 ADD MSTORE POP POP POP POP JUMP JUMPDEST PUSH1 0x0 PUSH2 0xB87 DUP3 PUSH2 0xB36 JUMP JUMPDEST PUSH2 0xB91 DUP2 DUP6 PUSH2 0xB41 JUMP JUMPDEST SWAP4 POP PUSH2 0xBA1 DUP2 DUP6 PUSH1 0x20 DUP7 ADD PUSH2 0xB52 JUMP JUMPDEST PUSH2 0xBAA DUP2 PUSH2 0x960 JUMP JUMPDEST DUP5 ADD SWAP2 POP POP SWAP3 SWAP2 POP POP JUMP JUMPDEST PUSH1 0x0 PUSH1 0x20 DUP3 ADD SWAP1 POP DUP2 DUP2 SUB PUSH1 0x0 DUP4 ADD MSTORE PUSH2 0xBCF DUP2 DUP5 PUSH2 0xB7C JUMP JUMPDEST SWAP1 POP SWAP3 SWAP2 POP POP JUMP JUMPDEST PUSH1 0x0 DUP1 REVERT JUMPDEST PUSH1 0x0 PUSH8 0xFFFFFFFFFFFFFFFF DUP3 GT ISZERO PUSH2 0xBF7 JUMPI PUSH2 0xBF6 PUSH2 0x971 JUMP JUMPDEST JUMPDEST PUSH2 0xC00 DUP3 PUSH2 0x960 JUMP JUMPDEST SWAP1 POP PUSH1 0x20 DUP2 ADD SWAP1 POP SWAP2 SWAP1 POP JUMP JUMPDEST DUP3 DUP2 DUP4 CALLDATACOPY PUSH1 0x0 DUP4 DUP4 ADD MSTORE POP POP POP JUMP JUMPDEST PUSH1 0x0 PUSH2 0xC2F PUSH2 0xC2A DUP5 PUSH2 0xBDC JUMP JUMPDEST PUSH2 0x9D1 JUMP JUMPDEST SWAP1 POP DUP3 DUP2 MSTORE PUSH1 0x20 DUP2 ADD DUP5 DUP5 DUP5 ADD GT ISZERO PUSH2 0xC4B JUMPI PUSH2 0xC4A PUSH2 0xBD7 JUMP JUMPDEST JUMPDEST PUSH2 0xC56 DUP5 DUP3 DUP6 PUSH2 0xC0D JUMP JUMPDEST POP SWAP4 SWAP3 POP POP POP JUMP JUMPDEST PUSH1 0x0 DUP3 PUSH1 0x1F DUP4 ADD SLT PUSH2 0xC73 JUMPI PUSH2 0xC72 PUSH2 0x95B JUMP JUMPDEST JUMPDEST DUP2 CALLDATALOAD PUSH2 0xC83 DUP5 DUP3 PUSH1 0x20 DUP7 ADD PUSH2 0xC1C JUMP JUMPDEST SWAP2 POP POP SWAP3 SWAP2 POP POP JUMP JUMPDEST PUSH1 0x0 PUSH1 0x20 DUP3 DUP5 SUB SLT ISZERO PUSH2 0xCA2 JUMPI PUSH2 0xCA1 PUSH2 0x951 JUMP JUMPDEST JUMPDEST PUSH1 0x0 DUP3 ADD CALLDATALOAD PUSH8 0xFFFFFFFFFFFFFFFF DUP2 GT ISZERO PUSH2 0xCC0 JUMPI PUSH2 0xCBF PUSH2 0x956 JUMP JUMPDEST JUMPDEST PUSH2 0xCCC DUP5 DUP3 DUP6 ADD PUSH2 0xC5E JUMP JUMPDEST SWAP2 POP POP SWAP3 SWAP2 POP POP JUMP JUMPDEST PUSH1 0x0 PUSH20 0xFFFFFFFFFFFFFFFFFFFFFFFFFFFFFFFFFFFFFFFF DUP3 AND SWAP1 POP SWAP2 SWAP1 POP JUMP JUMPDEST PUSH1 0x0 PUSH2 0xD00 DUP3 PUSH2 0xCD5 JUMP JUMPDEST SWAP1 POP SWAP2 SWAP1 POP JUMP JUMPDEST PUSH2 0xD10 DUP2 PUSH2 0xCF5 JUMP JUMPDEST DUP3 MSTORE POP POP JUMP JUMPDEST PUSH1 0x0 PUSH1 0x20 DUP3 ADD SWAP1 POP PUSH2 0xD2B PUSH1 0x0 DUP4 ADD DUP5 PUSH2 0xD07 JUMP JUMPDEST SWAP3 SWAP2 POP POP JUMP JUMPDEST PUSH2 0xD3A DUP2 PUSH2 0xA1D JUMP JUMPDEST DUP3 MSTORE POP POP JUMP JUMPDEST PUSH1 0x0 PUSH1 0x20 DUP3 ADD SWAP1 POP PUSH2 0xD55 PUSH1 0x0 DUP4 ADD DUP5 PUSH2 0xD31 JUMP JUMPDEST SWAP3 SWAP2 POP POP JUMP JUMPDEST PUSH2 0xD64 DUP2 PUSH2 0xCF5 JUMP JUMPDEST DUP2 EQ PUSH2 0xD6F JUMPI PUSH1 0x0 DUP1 REVERT JUMPDEST POP JUMP JUMPDEST PUSH1 0x0 DUP2 CALLDATALOAD SWAP1 POP PUSH2 0xD81 DUP2 PUSH2 0xD5B JUMP JUMPDEST SWAP3 SWAP2 POP POP JUMP JUMPDEST PUSH1 0x0 PUSH1 0x20 DUP3 DUP5 SUB SLT ISZERO PUSH2 0xD9D JUMPI PUSH2 0xD9C PUSH2 0x951 JUMP JUMPDEST JUMPDEST PUSH1 0x0 PUSH2 0xDAB DUP5 DUP3 DUP6 ADD PUSH2 0xD72 JUMP JUMPDEST SWAP2 POP POP SWAP3 SWAP2 POP POP JUMP JUMPDEST PUSH32 0x496E76616C696420616E7377657273206C656E67746800000000000000000000 PUSH1 0x0 DUP3 ADD MSTORE POP JUMP JUMPDEST PUSH1 0x0 PUSH2 0xDEA PUSH1 0x16 DUP4 PUSH2 0xB41 JUMP JUMPDEST SWAP2 POP PUSH2 0xDF5 DUP3 PUSH2 0xDB4 JUMP JUMPDEST PUSH1 0x20 DUP3 ADD SWAP1 POP SWAP2 SWAP1 POP JUMP JUMPDEST PUSH1 0x0 PUSH1 0x20 DUP3 ADD SWAP1 POP DUP2 DUP2 SUB PUSH1 0x0 DUP4 ADD MSTORE PUSH2 0xE19 DUP2 PUSH2 0xDDD JUMP JUMPDEST SWAP1 POP SWAP2 SWAP1 POP JUMP JUMPDEST PUSH32 0x4E487B7100000000000000000000000000000000000000000000000000000000 PUSH1 0x0 MSTORE PUSH1 0x32 PUSH1 0x4 MSTORE PUSH1 0x24 PUSH1 0x0 REVERT JUMPDEST PUSH32 0x4E487B7100000000000000000000000000000000000000000000000000000000 PUSH1 0x0 MSTORE PUSH1 0x11 PUSH1 0x4 MSTORE PUSH1 0x24 PUSH1 0x0 REVERT JUMPDEST PUSH1 0x0 PUSH2 0xE89 DUP3 PUSH2 0xA1D JUMP JUMPDEST SWAP2 POP PUSH1 0xFF DUP3 SUB PUSH2 0xE9C JUMPI PUSH2 0xE9B PUSH2 0xE4F JUMP JUMPDEST JUMPDEST PUSH1 0x1 DUP3 ADD SWAP1 POP SWAP2 SWAP1 POP JUMP JUMPDEST PUSH32 0x496E76616C69642073636F726500000000000000000000000000000000000000 PUSH1 0x0 DUP3 ADD MSTORE POP JUMP JUMPDEST PUSH1 0x0 PUSH2 0xEDD PUSH1 0xD DUP4 PUSH2 0xB41 JUMP JUMPDEST SWAP2 POP PUSH2 0xEE8 DUP3 PUSH2 0xEA7 JUMP JUMPDEST PUSH1 0x20 DUP3 ADD SWAP1 POP SWAP2 SWAP1 POP JUMP JUMPDEST PUSH1 0x0 PUSH1 0x20 DUP3 ADD SWAP1 POP DUP2 DUP2 SUB PUSH1 0x0 DUP4 ADD MSTORE PUSH2 0xF0C DUP2 PUSH2 0xED0 JUMP JUMPDEST SWAP1 POP SWAP2 SWAP1 POP JUMP JUMPDEST PUSH32 0x4E6F20616E737765720000000000000000000000000000000000000000000000 PUSH1 0x0 DUP3 ADD MSTORE POP JUMP JUMPDEST PUSH1 0x0 PUSH2 0xF49 PUSH1 0x9 DUP4 PUSH2 0xB41 JUMP JUMPDEST SWAP2 POP PUSH2 0xF54 DUP3 PUSH2 0xF13 JUMP JUMPDEST PUSH1 0x20 DUP3 ADD SWAP1 POP SWAP2 SWAP1 POP JUMP JUMPDEST PUSH1 0x0 PUSH1 0x20 DUP3 ADD SWAP1 POP DUP2 DUP2 SUB PUSH1 0x0 DUP4 ADD MSTORE PUSH2 0xF78 DUP2 PUSH2 0xF3C JUMP JUMPDEST SWAP1 POP SWAP2 SWAP1 POP JUMP JUMPDEST PUSH2 0xF88 DUP2 PUSH2 0x913 JUMP JUMPDEST DUP2 EQ PUSH2 0xF93 JUMPI PUSH1 0x0 DUP1 REVERT JUMPDEST POP JUMP JUMPDEST PUSH1 0x0 DUP2 MLOAD SWAP1 POP PUSH2 0xFA5 DUP2 PUSH2 0xF7F JUMP JUMPDEST SWAP3 SWAP2 POP POP JUMP JUMPDEST PUSH1 0x0 PUSH1 0x20 DUP3 DUP5 SUB SLT ISZERO PUSH2 0xFC1 JUMPI PUSH2 0xFC0 PUSH2 0x951 JUMP JUMPDEST JUMPDEST PUSH1 0x0 PUSH2 0xFCF DUP5 DUP3 DUP6 ADD PUSH2 0xF96 JUMP JUMPDEST SWAP2 POP POP SWAP3 SWAP2 POP POP JUMP JUMPDEST PUSH1 0x0 PUSH1 0x40 DUP3 ADD SWAP1 POP PUSH2 0xFED PUSH1 0x0 DUP4 ADD DUP6 PUSH2 0xD07 JUMP JUMPDEST PUSH2 0xFFA PUSH1 0x20 DUP4 ADD DUP5 PUSH2 0x91D JUMP JUMPDEST SWAP4 SWAP3 POP POP POP JUMP JUMPDEST PUSH1 0x0 DUP2 ISZERO ISZERO SWAP1 POP SWAP2 SWAP1 POP JUMP JUMPDEST PUSH2 0x1016 DUP2 PUSH2 0x1001 JUMP JUMPDEST DUP2 EQ PUSH2 0x1021 JUMPI PUSH1 0x0 DUP1 REVERT JUMPDEST POP JUMP JUMPDEST PUSH1 0x0 DUP2 MLOAD SWAP1 POP PUSH2 0x1033 DUP2 PUSH2 0x100D JUMP JUMPDEST SWAP3 SWAP2 POP POP JUMP JUMPDEST PUSH1 0x0 PUSH1 0x20 DUP3 DUP5 SUB SLT ISZERO PUSH2 0x104F JUMPI PUSH2 0x104E PUSH2 0x951 JUMP JUMPDEST JUMPDEST PUSH1 0x0 PUSH2 0x105D DUP5 DUP3 DUP6 ADD PUSH2 0x1024 JUMP JUMPDEST SWAP2 POP POP SWAP3 SWAP2 POP POP JUMP JUMPDEST PUSH32 0x4E487B7100000000000000000000000000000000000000000000000000000000 PUSH1 0x0 MSTORE PUSH1 0x22 PUSH1 0x4 MSTORE PUSH1 0x24 PUSH1 0x0 REVERT JUMPDEST PUSH1 0x0 PUSH1 0x2 DUP3 DIV SWAP1 POP PUSH1 0x1 DUP3 AND DUP1 PUSH2 0x10AD JUMPI PUSH1 0x7F DUP3 AND SWAP2 POP JUMPDEST PUSH1 0x20 DUP3 LT DUP2 SUB PUSH2 0x10C0 JUMPI PUSH2 0x10BF PUSH2 0x1066 JUMP JUMPDEST JUMPDEST POP SWAP2 SWAP1 POP JUMP JUMPDEST PUSH1 0x0 DUP2 SWAP1 POP DUP2 PUSH1 0x0 MSTORE PUSH1 0x20 PUSH1 0x0 KECCAK256 SWAP1 POP SWAP2 SWAP1 POP JUMP JUMPDEST PUSH1 0x0 PUSH1 0x20 PUSH1 0x1F DUP4 ADD DIV SWAP1 POP SWAP2 SWAP1 POP JUMP JUMPDEST PUSH1 0x0 DUP3 DUP3 SHL SWAP1 POP SWAP3 SWAP2 POP POP JUMP JUMPDEST PUSH1 0x0 PUSH1 0x8 DUP4 MUL PUSH2 0x1128 PUSH32 0xFFFFFFFFFFFFFFFFFFFFFFFFFFFFFFFFFFFFFFFFFFFFFFFFFFFFFFFFFFFFFFFF DUP3 PUSH2 0x10EB JUMP JUMPDEST PUSH2 0x1132 DUP7 DUP4 PUSH2 0x10EB JUMP JUMPDEST SWAP6 POP DUP1 NOT DUP5 AND SWAP4 POP DUP1 DUP7 AND DUP5 OR SWAP3 POP POP POP SWAP4 SWAP3 POP POP POP JUMP JUMPDEST PUSH1 0x0 DUP2 SWAP1 POP SWAP2 SWAP1 POP JUMP JUMPDEST PUSH1 0x0 PUSH2 0x116F PUSH2 0x116A PUSH2 0x1165 DUP5 PUSH2 0x913 JUMP JUMPDEST PUSH2 0x114A JUMP JUMPDEST PUSH2 0x913 JUMP JUMPDEST SWAP1 POP SWAP2 SWAP1 POP JUMP JUMPDEST PUSH1 0x0 DUP2 SWAP1 POP SWAP2 SWAP1 POP JUMP JUMPDEST PUSH2 0x1189 DUP4 PUSH2 0x1154 JUMP JUMPDEST PUSH2 0x119D PUSH2 0x1195 DUP3 PUSH2 0x1176 JUMP JUMPDEST DUP5 DUP5 SLOAD PUSH2 0x10F8 JUMP JUMPDEST DUP3 SSTORE POP POP POP POP JUMP JUMPDEST PUSH1 0x0 SWAP1 JUMP JUMPDEST PUSH2 0x11B2 PUSH2 0x11A5 JUMP JUMPDEST PUSH2 0x11BD DUP2 DUP5 DUP5 PUSH2 0x1180 JUMP JUMPDEST POP POP POP JUMP JUMPDEST JUMPDEST DUP2 DUP2 LT ISZERO PUSH2 0x11E1 JUMPI PUSH2 0x11D6 PUSH1 0x0 DUP3 PUSH2 0x11AA JUMP JUMPDEST PUSH1 0x1 DUP2 ADD SWAP1 POP PUSH2 0x11C3 JUMP JUMPDEST POP POP JUMP JUMPDEST PUSH1 0x1F DUP3 GT ISZERO PUSH2 0x1226 JUMPI PUSH2 0x11F7 DUP2 PUSH2 0x10C6 JUMP JUMPDEST PUSH2 0x1200 DUP5 PUSH2 0x10DB JUMP JUMPDEST DUP2 ADD PUSH1 0x20 DUP6 LT ISZERO PUSH2 0x120F JUMPI DUP2 SWAP1 POP JUMPDEST PUSH2 0x1223 PUSH2 0x121B DUP6 PUSH2 0x10DB JUMP JUMPDEST DUP4 ADD DUP3 PUSH2 0x11C2 JUMP JUMPDEST POP POP JUMPDEST POP POP POP JUMP JUMPDEST PUSH1 0x0 DUP3 DUP3 SHR SWAP1 POP SWAP3 SWAP2 POP POP JUMP JUMPDEST PUSH1 0x0 PUSH2 0x1249 PUSH1 0x0 NOT DUP5 PUSH1 0x8 MUL PUSH2 0x122B JUMP JUMPDEST NOT DUP1 DUP4 AND SWAP2 POP POP SWAP3 SWAP2 POP POP JUMP JUMPDEST PUSH1 0x0 PUSH2 0x1262 DUP4 DUP4 PUSH2 0x1238 JUMP JUMPDEST SWAP2 POP DUP3 PUSH1 0x2 MUL DUP3 OR SWAP1 POP SWAP3 SWAP2 POP POP JUMP JUMPDEST PUSH2 0x127B DUP3 PUSH2 0xB36 JUMP JUMPDEST PUSH8 0xFFFFFFFFFFFFFFFF DUP2 GT ISZERO PUSH2 0x1294 JUMPI PUSH2 0x1293 PUSH2 0x971 JUMP JUMPDEST JUMPDEST PUSH2 0x129E DUP3 SLOAD PUSH2 0x1095 JUMP JUMPDEST PUSH2 0x12A9 DUP3 DUP3 DUP6 PUSH2 0x11E5 JUMP JUMPDEST PUSH1 0x0 PUSH1 0x20 SWAP1 POP PUSH1 0x1F DUP4 GT PUSH1 0x1 DUP2 EQ PUSH2 0x12DC JUMPI PUSH1 0x0 DUP5 ISZERO PUSH2 0x12CA JUMPI DUP3 DUP8 ADD MLOAD SWAP1 POP JUMPDEST PUSH2 0x12D4 DUP6 DUP3 PUSH2 0x1256 JUMP JUMPDEST DUP7 SSTORE POP PUSH2 0x133C JUMP JUMPDEST PUSH1 0x1F NOT DUP5 AND PUSH2 0x12EA DUP7 PUSH2 0x10C6 JUMP JUMPDEST PUSH1 0x0 JUMPDEST DUP3 DUP2 LT ISZERO PUSH2 0x1312 JUMPI DUP5 DUP10 ADD MLOAD DUP3 SSTORE PUSH1 0x1 DUP3 ADD SWAP2 POP PUSH1 0x20 DUP6 ADD SWAP5 POP PUSH1 0x20 DUP2 ADD SWAP1 POP PUSH2 0x12ED JUMP JUMPDEST DUP7 DUP4 LT ISZERO PUSH2 0x132F JUMPI DUP5 DUP10 ADD MLOAD PUSH2 0x132B PUSH1 0x1F DUP10 AND DUP3 PUSH2 0x1238 JUMP JUMPDEST DUP4 SSTORE POP JUMPDEST PUSH1 0x1 PUSH1 0x2 DUP9 MUL ADD DUP9 SSTORE POP POP POP JUMPDEST POP POP POP POP POP POP JUMP INVALID LOG2 PUSH5 0x6970667358 0x22 SLT KECCAK256 0xDB 0xD5 0xE9 0xC2 PREVRANDAO GASLIMIT SWAP2 ADDMOD 0xF6 0xAE COINBASE COINBASE 0xAB PREVRANDAO GT CALLDATASIZE 0xDC DUP14 SWAP5 PUSH19 0x69F446B326916FFBCCEC0F7764736F6C634300 ADDMOD XOR STOP CALLER "},"methodIdentifiers":{"answer(uint8[])":"33261481","answeredUsers(address)":"a4dda86c","claim()":"4e71d92d","endDate()":"c24a0f8b","maxScore()":"9a1b4b38","owner()":"8da5cb5b","poolSize()":"4ec18db9","questionUri()":"62b8a764","renounceOwnership()":"715018a6","startDate()":"0b97bc86","tokenAddress()":"9d76ea58","transferOwnership(address)":"f2fde38b","updateQuestionUri(string)":"88ddb0a6"}}}}}