{
  "_format": "hh-sol-artifact-1",
  "contractName": "EduVerseQuiz",
  "sourceName": "contracts/EduVerseQuiz.sol",
  "abi": [
    {
      "inputs": [
        {
          "components": [
            {
              "internalType": "string",
              "name": "questionUri",
              "type": "string"
            },
            {
              "internalType": "uint8[]",
              "name": "results",
              "type": "uint8[]"
            },
            {
              "internalType": "address",
              "name": "tokenAddress",
              "type": "address"
            },
            {
              "internalType": "uint256",
              "name": "tokenAmount",
              "type": "uint256"
            },
            {
              "internalType": "uint256",
              "name": "startDate",
              "type": "uint256"
            },
            {
              "internalType": "uint256",
              "name": "endDate",
              "type": "uint256"
            }
          ],
          "internalType": "struct EduVerseQuizParams",
          "name": "params",
          "type": "tuple"
        }
      ],
      "stateMutability": "nonpayable",
      "type": "constructor"
    },
    {
      "inputs": [
        {
          "internalType": "address",
          "name": "owner",
          "type": "address"
        }
      ],
      "name": "OwnableInvalidOwner",
      "type": "error"
    },
    {
      "inputs": [
        {
          "internalType": "address",
          "name": "account",
          "type": "address"
        }
      ],
      "name": "OwnableUnauthorizedAccount",
      "type": "error"
    },
    {
      "anonymous": false,
      "inputs": [
        {
          "indexed": true,
          "internalType": "address",
          "name": "user",
          "type": "address"
        },
        {
          "indexed": false,
          "internalType": "uint8",
          "name": "score",
          "type": "uint8"
        }
      ],
      "name": "Answered",
      "type": "event"
    },
    {
      "anonymous": false,
      "inputs": [
        {
          "indexed": true,
          "internalType": "address",
          "name": "previousOwner",
          "type": "address"
        },
        {
          "indexed": true,
          "internalType": "address",
          "name": "newOwner",
          "type": "address"
        }
      ],
      "name": "OwnershipTransferred",
      "type": "event"
    },
    {
      "inputs": [
        {
          "internalType": "uint8[]",
          "name": "_answers",
          "type": "uint8[]"
        }
      ],
      "name": "answer",
      "outputs": [],
      "stateMutability": "nonpayable",
      "type": "function"
    },
    {
      "inputs": [
        {
          "internalType": "address",
          "name": "",
          "type": "address"
        }
      ],
      "name": "answeredUsers",
      "outputs": [
        {
          "internalType": "uint8",
          "name": "",
          "type": "uint8"
        }
      ],
      "stateMutability": "view",
      "type": "function"
    },
    {
      "inputs": [],
      "name": "claim",
      "outputs": [],
      "stateMutability": "nonpayable",
      "type": "function"
    },
    {
      "inputs": [],
      "name": "endDate",
      "outputs": [
        {
          "internalType": "uint256",
          "name": "",
          "type": "uint256"
        }
      ],
      "stateMutability": "view",
      "type": "function"
    },
    {
      "inputs": [],
      "name": "maxScore",
      "outputs": [
        {
          "internalType": "uint8",
          "name": "",
          "type": "uint8"
        }
      ],
      "stateMutability": "view",
      "type": "function"
    },
    {
      "inputs": [],
      "name": "owner",
      "outputs": [
        {
          "internalType": "address",
          "name": "",
          "type": "address"
        }
      ],
      "stateMutability": "view",
      "type": "function"
    },
    {
      "inputs": [],
      "name": "poolSize",
      "outputs": [
        {
          "internalType": "uint256",
          "name": "",
          "type": "uint256"
        }
      ],
      "stateMutability": "view",
      "type": "function"
    },
    {
      "inputs": [],
      "name": "questionUri",
      "outputs": [
        {
          "internalType": "string",
          "name": "",
          "type": "string"
        }
      ],
      "stateMutability": "view",
      "type": "function"
    },
    {
      "inputs": [],
      "name": "renounceOwnership",
      "outputs": [],
      "stateMutability": "nonpayable",
      "type": "function"
    },
    {
      "inputs": [],
      "name": "startDate",
      "outputs": [
        {
          "internalType": "uint256",
          "name": "",
          "type": "uint256"
        }
      ],
      "stateMutability": "view",
      "type": "function"
    },
    {
      "inputs": [],
      "name": "tokenAddress",
      "outputs": [
        {
          "internalType": "address",
          "name": "",
          "type": "address"
        }
      ],
      "stateMutability": "view",
      "type": "function"
    },
    {
      "inputs": [
        {
          "internalType": "address",
          "name": "newOwner",
          "type": "address"
        }
      ],
      "name": "transferOwnership",
      "outputs": [],
      "stateMutability": "nonpayable",
      "type": "function"
    },
    {
      "inputs": [
        {
          "internalType": "string",
          "name": "_newUri",
          "type": "string"
        }
      ],
      "name": "updateQuestionUri",
      "outputs": [],
      "stateMutability": "nonpayable",
      "type": "function"
    }
  ],
  "bytecode": "0x6080604052600a600360006101000a81548160ff021916908360ff1602179055503480156200002d57600080fd5b5060405162001e8238038062001e82833981810160405281019062000053919062000751565b33600073ffffffffffffffffffffffffffffffffffffffff168173ffffffffffffffffffffffffffffffffffffffff1603620000c95760006040517f1e4fbdf7000000000000000000000000000000000000000000000000000000008152600401620000c09190620007b3565b60405180910390fd5b620000da816200017b60201b60201c565b50806000015160019081620000f0919062000a11565b508060200151600290805190602001906200010d9291906200023f565b508060400151600360016101000a81548173ffffffffffffffffffffffffffffffffffffffff021916908373ffffffffffffffffffffffffffffffffffffffff160217905550806060015160048190555080608001516005819055508060a001516006819055505062000af8565b60008060009054906101000a900473ffffffffffffffffffffffffffffffffffffffff169050816000806101000a81548173ffffffffffffffffffffffffffffffffffffffff021916908373ffffffffffffffffffffffffffffffffffffffff1602179055508173ffffffffffffffffffffffffffffffffffffffff168173ffffffffffffffffffffffffffffffffffffffff167f8be0079c531659141344cd1fd0a4f28419497f9722a3daafe3b4186f6b6457e060405160405180910390a35050565b82805482825590600052602060002090601f01602090048101928215620002da5791602002820160005b83821115620002a957835183826101000a81548160ff021916908360ff160217905550926020019260010160208160000104928301926001030262000269565b8015620002d85782816101000a81549060ff0219169055600101602081600001049283019260010302620002a9565b505b509050620002e99190620002ed565b5090565b5b8082111562000308576000816000905550600101620002ee565b5090565b6000604051905090565b600080fd5b600080fd5b600080fd5b6000601f19601f8301169050919050565b7f4e487b7100000000000000000000000000000000000000000000000000000000600052604160045260246000fd5b620003708262000325565b810181811067ffffffffffffffff8211171562000392576200039162000336565b5b80604052505050565b6000620003a76200030c565b9050620003b5828262000365565b919050565b600080fd5b600080fd5b600080fd5b600067ffffffffffffffff821115620003e757620003e662000336565b5b620003f28262000325565b9050602081019050919050565b60005b838110156200041f57808201518184015260208101905062000402565b60008484015250505050565b6000620004426200043c84620003c9565b6200039b565b905082815260208101848484011115620004615762000460620003c4565b5b6200046e848285620003ff565b509392505050565b600082601f8301126200048e576200048d620003bf565b5b8151620004a08482602086016200042b565b91505092915050565b600067ffffffffffffffff821115620004c757620004c662000336565b5b602082029050602081019050919050565b600080fd5b600060ff82169050919050565b620004f581620004dd565b81146200050157600080fd5b50565b6000815190506200051581620004ea565b92915050565b6000620005326200052c84620004a9565b6200039b565b90508083825260208201905060208402830185811115620005585762000557620004d8565b5b835b8181101562000585578062000570888262000504565b8452602084019350506020810190506200055a565b5050509392505050565b600082601f830112620005a757620005a6620003bf565b5b8151620005b98482602086016200051b565b91505092915050565b600073ffffffffffffffffffffffffffffffffffffffff82169050919050565b6000620005ef82620005c2565b9050919050565b6200060181620005e2565b81146200060d57600080fd5b50565b6000815190506200062181620005f6565b92915050565b6000819050919050565b6200063c8162000627565b81146200064857600080fd5b50565b6000815190506200065c8162000631565b92915050565b600060c082840312156200067b576200067a62000320565b5b6200068760c06200039b565b9050600082015167ffffffffffffffff811115620006aa57620006a9620003ba565b5b620006b88482850162000476565b600083015250602082015167ffffffffffffffff811115620006df57620006de620003ba565b5b620006ed848285016200058f565b6020830152506040620007038482850162000610565b604083015250606062000719848285016200064b565b60608301525060806200072f848285016200064b565b60808301525060a062000745848285016200064b565b60a08301525092915050565b6000602082840312156200076a576200076962000316565b5b600082015167ffffffffffffffff8111156200078b576200078a6200031b565b5b620007998482850162000662565b91505092915050565b620007ad81620005e2565b82525050565b6000602082019050620007ca6000830184620007a2565b92915050565b600081519050919050565b7f4e487b7100000000000000000000000000000000000000000000000000000000600052602260045260246000fd5b600060028204905060018216806200082357607f821691505b602082108103620008395762000838620007db565b5b50919050565b60008190508160005260206000209050919050565b60006020601f8301049050919050565b600082821b905092915050565b600060088302620008a37fffffffffffffffffffffffffffffffffffffffffffffffffffffffffffffffff8262000864565b620008af868362000864565b95508019841693508086168417925050509392505050565b6000819050919050565b6000620008f2620008ec620008e68462000627565b620008c7565b62000627565b9050919050565b6000819050919050565b6200090e83620008d1565b620009266200091d82620008f9565b84845462000871565b825550505050565b600090565b6200093d6200092e565b6200094a81848462000903565b505050565b5b8181101562000972576200096660008262000933565b60018101905062000950565b5050565b601f821115620009c1576200098b816200083f565b620009968462000854565b81016020851015620009a6578190505b620009be620009b58562000854565b8301826200094f565b50505b505050565b600082821c905092915050565b6000620009e660001984600802620009c6565b1980831691505092915050565b600062000a018383620009d3565b9150826002028217905092915050565b62000a1c82620007d0565b67ffffffffffffffff81111562000a385762000a3762000336565b5b62000a4482546200080a565b62000a5182828562000976565b600060209050601f83116001811462000a89576000841562000a74578287015190505b62000a808582620009f3565b86555062000af0565b601f19841662000a99866200083f565b60005b8281101562000ac35784890151825560018201915060208501945060208101905062000a9c565b8683101562000ae3578489015162000adf601f891682620009d3565b8355505b6001600288020188555050505b505050505050565b61137a8062000b086000396000f3fe608060405234801561001057600080fd5b50600436106100cf5760003560e01c806388ddb0a61161008c5780639d76ea58116100665780639d76ea58146101b6578063a4dda86c146101d4578063c24a0f8b14610204578063f2fde38b14610222576100cf565b806388ddb0a61461015e5780638da5cb5b1461017a5780639a1b4b3814610198576100cf565b80630b97bc86146100d457806333261481146100f25780634e71d92d1461010e5780634ec18db91461011857806362b8a76414610136578063715018a614610154575b600080fd5b6100dc61023e565b6040516100e9919061092c565b60405180910390f35b61010c60048036038101906101079190610aed565b610244565b005b610116610421565b005b6101206105f7565b60405161012d919061092c565b60405180910390f35b61013e6105fd565b60405161014b9190610bb5565b60405180910390f35b61015c61068b565b005b61017860048036038101906101739190610c8c565b61069f565b005b6101826106b2565b60405161018f9190610d16565b60405180910390f35b6101a06106db565b6040516101ad9190610d40565b60405180910390f35b6101be6106ee565b6040516101cb9190610d16565b60405180910390f35b6101ee60048036038101906101e99190610d87565b610714565b6040516101fb9190610d40565b60405180910390f35b61020c610734565b604051610219919061092c565b60405180910390f35b61023c60048036038101906102379190610d87565b61073a565b005b60055481565b60028054905081511461028c576040517f08c379a000000000000000000000000000000000000000000000000000000000815260040161028390610e00565b60405180910390fd5b6000805b82518160ff16101561031e5760028160ff16815481106102b3576102b2610e20565b5b90600052602060002090602091828204019190069054906101000a900460ff1660ff16838260ff16815181106102ec576102eb610e20565b5b602002602001015160ff160361030b57818061030790610e7e565b9250505b808061031690610e7e565b915050610290565b50600360009054906101000a900460ff1660ff168160ff161115610377576040517f08c379a000000000000000000000000000000000000000000000000000000000815260040161036e90610ef3565b60405180910390fd5b80600760003373ffffffffffffffffffffffffffffffffffffffff1673ffffffffffffffffffffffffffffffffffffffff16815260200190815260200160002060006101000a81548160ff021916908360ff1602179055503373ffffffffffffffffffffffffffffffffffffffff167ff8331bb89425bd281313a56dea0ab2d03a1cf7447385e0e047802182ac08f939826040516104159190610d40565b60405180910390a25050565b6000600760003373ffffffffffffffffffffffffffffffffffffffff1673ffffffffffffffffffffffffffffffffffffffff16815260200190815260200160002060009054906101000a900460ff1660ff16116104b3576040517f08c379a00000000000000000000000000000000000000000000000000000000081526004016104aa90610f5f565b60405180910390fd5b6000600360019054906101000a900473ffffffffffffffffffffffffffffffffffffffff1673ffffffffffffffffffffffffffffffffffffffff166370a08231306040518263ffffffff1660e01b81526004016105109190610d16565b602060405180830381865afa15801561052d573d6000803e3d6000fd5b505050506040513d601f19601f820116820180604052508101906105519190610fab565b9050600360019054906101000a900473ffffffffffffffffffffffffffffffffffffffff1673ffffffffffffffffffffffffffffffffffffffff1663a9059cbb33836040518363ffffffff1660e01b81526004016105b0929190610fd8565b6020604051808303816000875af11580156105cf573d6000803e3d6000fd5b505050506040513d601f19601f820116820180604052508101906105f39190611039565b5050565b60045481565b6001805461060a90611095565b80601f016020809104026020016040519081016040528092919081815260200182805461063690611095565b80156106835780601f1061065857610100808354040283529160200191610683565b820191906000526020600020905b81548152906001019060200180831161066657829003601f168201915b505050505081565b6106936107c0565b61069d6000610847565b565b80600190816106ae9190611272565b5050565b60008060009054906101000a900473ffffffffffffffffffffffffffffffffffffffff16905090565b600360009054906101000a900460ff1681565b600360019054906101000a900473ffffffffffffffffffffffffffffffffffffffff1681565b60076020528060005260406000206000915054906101000a900460ff1681565b60065481565b6107426107c0565b600073ffffffffffffffffffffffffffffffffffffffff168173ffffffffffffffffffffffffffffffffffffffff16036107b45760006040517f1e4fbdf70000000000000000000000000000000000000000000000000000000081526004016107ab9190610d16565b60405180910390fd5b6107bd81610847565b50565b6107c861090b565b73ffffffffffffffffffffffffffffffffffffffff166107e66106b2565b73ffffffffffffffffffffffffffffffffffffffff16146108455761080961090b565b6040517f118cdaa700000000000000000000000000000000000000000000000000000000815260040161083c9190610d16565b60405180910390fd5b565b60008060009054906101000a900473ffffffffffffffffffffffffffffffffffffffff169050816000806101000a81548173ffffffffffffffffffffffffffffffffffffffff021916908373ffffffffffffffffffffffffffffffffffffffff1602179055508173ffffffffffffffffffffffffffffffffffffffff168173ffffffffffffffffffffffffffffffffffffffff167f8be0079c531659141344cd1fd0a4f28419497f9722a3daafe3b4186f6b6457e060405160405180910390a35050565b600033905090565b6000819050919050565b61092681610913565b82525050565b6000602082019050610941600083018461091d565b92915050565b6000604051905090565b600080fd5b600080fd5b600080fd5b6000601f19601f8301169050919050565b7f4e487b7100000000000000000000000000000000000000000000000000000000600052604160045260246000fd5b6109a982610960565b810181811067ffffffffffffffff821117156109c8576109c7610971565b5b80604052505050565b60006109db610947565b90506109e782826109a0565b919050565b600067ffffffffffffffff821115610a0757610a06610971565b5b602082029050602081019050919050565b600080fd5b600060ff82169050919050565b610a3381610a1d565b8114610a3e57600080fd5b50565b600081359050610a5081610a2a565b92915050565b6000610a69610a64846109ec565b6109d1565b90508083825260208201905060208402830185811115610a8c57610a8b610a18565b5b835b81811015610ab55780610aa18882610a41565b845260208401935050602081019050610a8e565b5050509392505050565b600082601f830112610ad457610ad361095b565b5b8135610ae4848260208601610a56565b91505092915050565b600060208284031215610b0357610b02610951565b5b600082013567ffffffffffffffff811115610b2157610b20610956565b5b610b2d84828501610abf565b91505092915050565b600081519050919050565b600082825260208201905092915050565b60005b83811015610b70578082015181840152602081019050610b55565b60008484015250505050565b6000610b8782610b36565b610b918185610b41565b9350610ba1818560208601610b52565b610baa81610960565b840191505092915050565b60006020820190508181036000830152610bcf8184610b7c565b905092915050565b600080fd5b600067ffffffffffffffff821115610bf757610bf6610971565b5b610c0082610960565b9050602081019050919050565b82818337600083830152505050565b6000610c2f610c2a84610bdc565b6109d1565b905082815260208101848484011115610c4b57610c4a610bd7565b5b610c56848285610c0d565b509392505050565b600082601f830112610c7357610c7261095b565b5b8135610c83848260208601610c1c565b91505092915050565b600060208284031215610ca257610ca1610951565b5b600082013567ffffffffffffffff811115610cc057610cbf610956565b5b610ccc84828501610c5e565b91505092915050565b600073ffffffffffffffffffffffffffffffffffffffff82169050919050565b6000610d0082610cd5565b9050919050565b610d1081610cf5565b82525050565b6000602082019050610d2b6000830184610d07565b92915050565b610d3a81610a1d565b82525050565b6000602082019050610d556000830184610d31565b92915050565b610d6481610cf5565b8114610d6f57600080fd5b50565b600081359050610d8181610d5b565b92915050565b600060208284031215610d9d57610d9c610951565b5b6000610dab84828501610d72565b91505092915050565b7f496e76616c696420616e7377657273206c656e67746800000000000000000000600082015250565b6000610dea601683610b41565b9150610df582610db4565b602082019050919050565b60006020820190508181036000830152610e1981610ddd565b9050919050565b7f4e487b7100000000000000000000000000000000000000000000000000000000600052603260045260246000fd5b7f4e487b7100000000000000000000000000000000000000000000000000000000600052601160045260246000fd5b6000610e8982610a1d565b915060ff8203610e9c57610e9b610e4f565b5b600182019050919050565b7f496e76616c69642073636f726500000000000000000000000000000000000000600082015250565b6000610edd600d83610b41565b9150610ee882610ea7565b602082019050919050565b60006020820190508181036000830152610f0c81610ed0565b9050919050565b7f4e6f20616e737765720000000000000000000000000000000000000000000000600082015250565b6000610f49600983610b41565b9150610f5482610f13565b602082019050919050565b60006020820190508181036000830152610f7881610f3c565b9050919050565b610f8881610913565b8114610f9357600080fd5b50565b600081519050610fa581610f7f565b92915050565b600060208284031215610fc157610fc0610951565b5b6000610fcf84828501610f96565b91505092915050565b6000604082019050610fed6000830185610d07565b610ffa602083018461091d565b9392505050565b60008115159050919050565b61101681611001565b811461102157600080fd5b50565b6000815190506110338161100d565b92915050565b60006020828403121561104f5761104e610951565b5b600061105d84828501611024565b91505092915050565b7f4e487b7100000000000000000000000000000000000000000000000000000000600052602260045260246000fd5b600060028204905060018216806110ad57607f821691505b6020821081036110c0576110bf611066565b5b50919050565b60008190508160005260206000209050919050565b60006020601f8301049050919050565b600082821b905092915050565b6000600883026111287fffffffffffffffffffffffffffffffffffffffffffffffffffffffffffffffff826110eb565b61113286836110eb565b95508019841693508086168417925050509392505050565b6000819050919050565b600061116f61116a61116584610913565b61114a565b610913565b9050919050565b6000819050919050565b61118983611154565b61119d61119582611176565b8484546110f8565b825550505050565b600090565b6111b26111a5565b6111bd818484611180565b505050565b5b818110156111e1576111d66000826111aa565b6001810190506111c3565b5050565b601f821115611226576111f7816110c6565b611200846110db565b8101602085101561120f578190505b61122361121b856110db565b8301826111c2565b50505b505050565b600082821c905092915050565b60006112496000198460080261122b565b1980831691505092915050565b60006112628383611238565b9150826002028217905092915050565b61127b82610b36565b67ffffffffffffffff81111561129457611293610971565b5b61129e8254611095565b6112a98282856111e5565b600060209050601f8311600181146112dc57600084156112ca578287015190505b6112d48582611256565b86555061133c565b601f1984166112ea866110c6565b60005b82811015611312578489015182556001820191506020850194506020810190506112ed565b8683101561132f578489015161132b601f891682611238565b8355505b6001600288020188555050505b50505050505056fea2646970667358221220dbd5e9c244459108f6ae4141ab441136dc8d947269f446b326916ffbccec0f7764736f6c63430008180033",
  "linkReferences": {},
  "deployedLinkReferences": {}
}